:020000040800F2
:1000000000800120ED0500083D0400083F040008C1
:1000100041040008430400084504000800000000F3
:10002000000000000000000000000000470400087D
:1000300049040008000000004B0400084D040008BB
:1000400035060008350600083506000835060008A4
:100050003506000835060008350600083506000894
:100060003506000835060008350600083506000884
:100070003506000835060008350600083506000874
:1000800035060008350600083506000800000000A7
:10009000000000000000000000000000350600081D
:1000A0003506000835060008350600083506000844
:1000B0003506000835060008350600083506000834
:1000C0003506000835060008350600083506000824
:1000D000350600084D030008350600080000000042
:1000E0003506000835060008350600080000000047
:1000F00000000000000000000000000035060008BD
:100100000000000035060008350600083506000826
:1001100000000000000000000000000000000000DF
:1001200035060008350600083506000835060008C3
:10013000350600080000000000000000000000007C
:10014000000000000000000000000000350600086C
:100150003506000835060008350600083506000893
:100160003506000835060008000000000000000009
:10017000000000000000000000000000000000007F
:10018000000000003506000800000000000000002C
:040190003506000828
:040194000000000067
:080198009000000001000000CE
:1001A0000348044B834202D0034B03B11847704706
:1001B000600400206004002000000000054806499B
:1001C000091A891001EBD171491002D0034B03B118
:1001D0001847704760040020600400200000000001
:1001E00010B5064C237843B9FFF7DAFF044B13B17F
:1001F0000448AFF300800123237010BD6804002081
:10020000000000009401000808B5044B1BB104492C
:100210000448AFF30080BDE80840CFE700000000CD
:100220006C04002094010008134B002B08BF114BF5
:100230009D46A3F5803A00218B460F461148124A8D
:10024000121A01F0A3F80D4B002B00D098470C4B6D
:10025000002B00D098470020002104000D000B481F
:1002600001F040F801F06EF82000290000F0A4F839
:1002700001F03EF80000080000000000000000004F
:100280000000000068040020900400201113000802
:10029000F0B589B00121022000F0F4FC012110200A
:1002A00000F01AFD284E07220621304600F04DFBD3
:1002B00007221146304600F048FB02238DF80C302F
:1002C00003238DF80D3000248DF80E4001258DF8A4
:1002D0000F5008AF402347F8183D3946304600F02C
:1002E000B1FA802302933946304600F0ABFA4FF45E
:1002F000E1330493ADF81440ADF81640ADF8184062
:10030000ADF81C400C23ADF81A30A6F5744604A9CC
:10031000304600F047FE2A4640F22551304600F0B4
:100320008DFF25238DF804308DF805508DF806409B
:100330008DF8075001A800F089F92946304600F0F1
:10034000BBFE09B0F0BD00BF0004024010B540F292
:1003500025510A4800F09AFF012800D010BD074C33
:1003600040F22551204600F0B4FF204600F0D5FEB3
:100370000146204600F0CDFEF0E700BF001001402E
:1003800010B504468021054800F075FF0128F9D119
:100390002146024800F0BDFE10BD00BF0010014024
:1003A00070B506460D46002403E0305DFFF7E8FF18
:1003B0000134A542F9DC70BD08B5124B1B68124A26
:1003C000A2FB03239B09013BB3F1807F00D3FEE72F
:1003D0000E4A53600E4BF02183F8231000239360E4
:1003E000072313604FF4A06000F026F901214FF4B9
:1003F000804000F071FCFFF74BFF642000F00AF82A
:10040000FBE700BF04000020D34D621010E000E0C5
:1004100000ED00E02DE97848064600F027F8044694
:100420000D4600F023F8B0EB040B61EB050C002344
:10043000634508BF5E45F4D2BDE878887047FEE7A3
:10044000FEE7FEE7FEE77047704770474DF804BDD2
:100450000549D1E900BC1BF101024CF10003C1E9DF
:1004600000235DF804BB704788040020014BD3E9EA
:100470000001704788040020194B1A6C42F080522A
:100480001A6418490A6822F440420A609A689A601D
:100490009A6842F400429A609A6842F4A0529A60C4
:1004A000114A5A601A6842F080721A600C4B1B683D
:1004B00013F0007FFAD00D4B40F202721A60A3F5E0
:1004C00080639A6822F003029A609A6842F00202FE
:1004D0009A60034B9B6803F00C03082BF9D170471B
:1004E000003802400070004010540108003C0240F7
:1004F00010B5104CD4F8883043F47003C4F8883039
:100500000D4B1A6842F001021A60002199601A68C6
:1005100022F0847222F480321A60084A5A601A6803
:1005200022F480221A60D960FFF7A6FF4FF0006323
:10053000A36010BD00ED00E0003802401030002440
:10054000224B9B6803F00C03042B15D0082B17D00B
:100550001BB11F4B1F4A1A6002E01D4B1D4A1A6057
:100560001A4B9B68C3F30313194A13441B79D9B27E
:100570001368CB4013607047154B164A1A60EFE7BB
:10058000124B5A685B6803F03F0312F4800F13D0DC
:10059000104AB2FBF3F20D4B5B68C3F3881303FB05
:1005A00002F30A4A5268C2F3014201325200B3FB1D
:1005B000F2F3074A1360D3E7064AB2FBF3F2034BA8
:1005C0005B68C3F3881303FB02F3EAE700380240D9
:1005D000040000200024F400C415000800000020DE
:1005E000580400206804002090040020002103E04B
:1005F0000B4B5B58435004310A480B4B42189A424C
:10060000F6D30A4A02E0002342F8043B084B9A4220
:10061000F9D3FFF76DFF00F095FEFFF7CDFE7047B1
:10062000C4150008000000205804002068040020C1
:1006300090040020FEE7000040F0BF6040F400306E
:10064000014BD860704700BF00ED00E0C37853B99C
:10065000037803F01F015B0901228A40203312490D
:1006600041F823207047114BDB68DB43C3F30222C0
:10067000C2F10401C9B20F23134142788A40D2B2B9
:1006800081780B4013431B01DBB2027806490A4410
:1006900082F80033037803F01F005B0901228240D7
:1006A00041F82320704700BF00E100E000ED00E0CA
:1006B00021F0604121F07F010143014B99607047B7
:1006C00000ED00E029B9054A136923EA0000106132
:1006D0007047024B1A6910431861704700ED00E043
:1006E000042805D0054A136823F0040313607047FB
:1006F000024A136843F004031360704710E000E0FF
:1007000008B5454B98421ED0444B984224D0444BE8
:1007100098422AD0434B984230D0434B984236D02F
:10072000424B98423CD0424B984242D0414B984277
:1007300048D0414B98424ED0404B984256D0404B07
:1007400098425ED008BD0121084600F0D3FA00218E
:10075000012000F0CFFAF5E70121022000F0CAFAEB
:100760000021022000F0C6FAECE70121042000F08D
:10077000C1FA0021042000F0BDFAE3E701210820BE
:1007800000F0B8FA0021082000F0B4FADAE70121FD
:10079000102000F0AFFA0021102000F0ABFAD1E7F2
:1007A0000121202000F0A6FA0021202000F0A2FA6A
:1007B000C8E70121402000F09DFA0021402000F010
:1007C00099FABFE70121802000F094FA00218020EF
:1007D00000F090FAB6E701214FF4807000F08AFA39
:1007E00000214FF4807000F085FAABE701214FF44F
:1007F000007000F07FFA00214FF4007000F07AFAE8
:10080000A0E701214FF4806000F074FA00214FF45A
:10081000806000F06FFA95E700000240000402409B
:1008200000080240000C0240001002400014024088
:1008300000180240001C0240002002400024024038
:100840000028024000230F2B40D8F0B410E0C2680B
:100850009CB266000324B44022EA0402C260C2686B
:10086000CC7904FA05F51543C56001330F2B2BD85D
:1008700001229A400C68A243F7D104685D0003226C
:10088000AA40D2431440046004680E79AE40344359
:1008900004600C79013CE4B2012CD8D88468224071
:1008A000826082684C79AC402243826044689FB287
:1008B0000126BE4024EA0604446044688A79BA40AE
:1008C00092B222434260C2E7F0BC704770474FF6D5
:1008D000FF7303600023037143718371C371704719
:1008E00082B04FF480330193019B0B430193019B32
:1008F000C361C161019BC361C3690193C369019372
:1009000002B070470369194201D1002070470120ED
:100910007047006980B270474369194201D10020D5
:10092000704701207047406980B27047018370476B
:10093000418370470AB94183704701837047416121
:100940007047436959404161704730B401F0070373
:100950009B009A40C908083150F821400F2505FA3C
:1009600003F324EA030340F8213050F821301A43FE
:1009700040F8212030BC70470C4B1A6842F001024D
:100980001A60002199601A6822F0A85222F41022FD
:100990001A60074A5A60074AC3F884201A6822F48A
:1009A00080221A60D960C3F88C107047003802406A
:1009B0001030002400300020024B00221A70187002
:1009C000704700BF02380240034A136823F0F8035F
:1009D00043EAC0001060704700380240014B1860C5
:1009E000704700BF00004742084B00221A701A707F
:1009F000012802D0042804D07047044B01221A7049
:100A00007047024B05221A70704700BF70380240D1
:100A1000014B1860704700BF800E474241EA8211C7
:100A20005B08013B41EA03410143009841EA006150
:100A3000014B5960704700BF00380240014B1860FD
:100A4000704700BF60004742090741EA8011024B2E
:100A5000C3F88410704700BF00380240014B186093
:100A6000704700BF68004742090641EA801141EA29
:100A70000271024BC3F88810704700BF0038024073
:100A8000014B1860704700BF70004742014B18606F
:100A9000704700BF4C004742034A936823F0EC6361
:100AA000014319439160704700380240034A93683C
:100AB00023F07843014319439160704700380240A6
:100AC000034A936823F0030318439060704700BF04
:100AD00000380240024B986800F00C00704700BFDD
:100AE00000380240034A936823F0F00318439060F3
:100AF000704700BF00380240034A936823F4E05374
:100B000018439060704700BF00380240034A936862
:100B100023F4604343EAC00090607047003802400D
:100B200010B4294B9B6803F00C03042B23D0082B33
:100B300024D013B1254B036001E0244B0360224C09
:100B4000A368C3F303132249CB5CDAB20368D34032
:100B50004360A268C2F382228A5CD2B223FA02F214
:100B60008260A268C2F342328A5CD2B2D340C360D0
:100B70005DF8044B7047154B0360E0E7124B5A6871
:100B80005B6803F03F0312F4800F12D00F4AB2FBF0
:100B9000F3F20D4B5B68C3F3881303FB02F30A4ABD
:100BA0005268C2F3014201325200B3FBF2F3036018
:100BB000C5E7064AB2FBF3F2034B5B68C3F3881345
:100BC00003FB02F3EBE700BF003802400024F4000F
:100BD0001800002000F44073B3F5407F06D0094AA6
:100BE000136FC0F30B0018431067704705498A68FC
:100BF00022F4F81220F0704323F4407313438B6007
:100C0000EDE700BF00380240014B1860704700BF9D
:100C10003C0E4742014B1860704700BF400E4742F0
:100C2000014B1860704700BF5C014742044AD2F88C
:100C30008C3023F01F0301381843C2F88C00704732
:100C400000380240054AD2F88C3023F4F8530138BA
:100C500043EA0023C2F88C30704700BF00380240DE
:100C6000044AD2F88C3023F440331843C2F88C0085
:100C7000704700BF00380240014B1860704700BF4A
:100C8000E011474229B9054A136B23EA00001063BB
:100C90007047024A136B18431063704700380240D4
:100CA00029B9054A536B23EA000050637047024A92
:100CB000536B1843506370470038024029B9054A06
:100CC000136C23EA000010647047024A136C184347
:100CD000106470470038024029B9054A536C23EA72
:100CE000000050647047024A536C184350647047C8
:100CF0000038024029B9054A136923EA000010614F
:100D00007047024A13691843106170470038024067
:100D100029B9054A536923EA000050617047024A25
:100D200053691843506170470038024029B9054A99
:100D3000136A23EA000010627047024A136A1843DC
:100D4000106270470038024029B9054A536A23EA05
:100D5000000050627047024A536A1843506270475D
:100D60000038024029B9054A136D23EA00001065D6
:100D70007047024A136D18431065704700380240EF
:100D800029B9054A536D23EA000050657047024AAD
:100D9000536D1843506570470038024029B9054A21
:100DA000136E23EA000010667047024A136E184360
:100DB000106670470038024029B9054A536E23EA8D
:100DC000000050667047024A536E184350667047E1
:100DD00000380240012805D0054A136F23F00803AC
:100DE00013677047024A136F43F008031367704795
:100DF0000038024029B9054A137823EA0000107030
:100E00007047024A13781843107070470D3802403B
:100E10004309012B0CD0022B0DD0094B5B6F00F066
:100E20001F0023FA00F010F0010F07D100207047D7
:100E3000034B1B68F3E7024B1B6FF0E70120704781
:100E40000038024000B583B0002301933120FFF742
:100E5000DFFF019B01330193019BB3F5A04F01D04C
:100E60000028F3D03120FFF7D3FF18B9002003B0DA
:100E70005DF804FB0120FAE7024A536F43F08073E8
:100E80005367704700380240034BDB68184201D1BA
:100E9000002070470120704700380240014B187055
:100EA000704700BF0E38024008B5364B984215D047
:100EB000354B98421BD0354B984223D0344B984247
:100EC0002BD0344B984233D0334B98423BD0334BEA
:100ED000984241D0324B984249D008BD01211020A0
:100EE000FFF732FF00211020FFF72EFFF5E7012169
:100EF0004FF40030FFF71AFF00214FF40030FFF7E6
:100F000015FFEAE701214FF48020FFF70FFF0021D2
:100F10004FF48020FFF70AFFDFE701214FF40020A4
:100F2000FFF704FF00214FF40020FFF7FFFED4E796
:100F300001214FF48010FFF7F9FE00214FF48010DB
:100F4000FFF7F4FEC9E701212020FFF7FDFE002195
:100F50002020FFF7F9FEC0E701214FF08040FFF7A6
:100F6000E5FE00214FF08040FFF7E0FEB5E70121EC
:100F70004FF00040FFF7DAFE00214FF00040FFF78E
:100F8000D5FEAAE7001001400044004000480040A0
:100F9000004C004000500040001401400078004028
:100FA000007C004030B585B004460D46038A9BB2F4
:100FB00023F44053CA881343038283899BB223F4EA
:100FC000B05323F00C03898828896A8901430A43B6
:100FD0001343A381A38A9BB223F44073AA891343CA
:100FE000A3826846FFF79CFD204B9C4205D003F589
:100FF00080639C4201D0029B00E0039BA28912F413
:10100000004F1FD103EB830303EB8303296889009F
:10101000B3FBF1F1164BA3FB01235809050164232F
:1010200000FB1313A28912F4004F14D11B013233B9
:101030000F4AA2FB0323C3F343132B439BB2238129
:1010400005B030BD03EB830303EB8303296849003C
:10105000B3FBF1F1DEE7DA003232054BA3FB0232DB
:10106000C2F3421242EA0503E8E700BF0010014064
:101070001F85EB514FF41653036000238380C38018
:1010800003810C2242818381704770B4038A9BB232
:1010900023F470620D884E888C88CB8845EA06015F
:1010A00021430B431343038270BC7047002303802A
:1010B00043808380C380704731B983899BB223F416
:1010C00000539BB283817047838943F4005383812B
:1010D0007047038B03F47F430383038B194301831E
:1010E000704721B98389C3F30E03838170478389D5
:1010F00043F400438381704731B9838A9BB223F460
:1011000000639BB283827047838A43F400638382C7
:101110007047C1F30801818070478088C0F30800E0
:101120007047038A9BB223F00F039BB20382038AAA
:1011300019430182704731B983899BB223F00203BE
:101140009BB283817047838943F002038381704798
:1011500083899BB223F400639BB283818389194303
:1011600081817047038A9BB223F020039BB20382E4
:10117000038A19430182704731B9038A9BB223F471
:1011800080439BB203827047038A43F48043038207
:101190007047838943F001038381704731B9838AA3
:1011A0009BB223F008039BB283827047838A43F08B
:1011B000080383827047038BDBB20383038B43EA0C
:1011C00001210183704731B9838A9BB223F0200348
:1011D0009BB283827047838A43F0200383827047E7
:1011E00031B9838A9BB223F010039BB2838270478C
:1011F000838A43F0100383827047838A9BB223F073
:1012000004039BB28382838A19438182704731B978
:10121000838A9BB223F002039BB283827047838A46
:1012200043F002038382704722B9838A23EA0101D3
:1012300081827047838A19438182704710B4C1F359
:10124000421401F01F01012303FA01F19C420AD06C
:10125000022C0AD0143052B9036823EA010101605C
:101260005DF8044B70470C30F5E71030F3E7036886
:1012700019430160F4E70388194201D10020704747
:1012800001207047C94389B20180704710B4C1F38F
:10129000421201F01F040123A340012A0DD0022AAB
:1012A0000ED0828A1340090A012202FA01F1028853
:1012B000114043B159B9002006E082891340F2E79A
:1012C000028A1340EFE700205DF8044B70470120CD
:1012D000FAE7090A01238B409BB2DB439BB20380F0
:1012E000704700BF002301461A46184600F098B820
:1012F00008B50021044600F0EDF8044B1868C36BF4
:1013000003B19847204600F04DF900BFA81500082A
:1013100038B50A4C0A4D641BA4100AD004F180436E
:10132000013B05EB8305013C55F804399847002C37
:10133000F9D1BDE8384000F03FB900BF000000001F
:101340000000000070B50D4E0D4D761BB61006D096
:101350000024013455F8043B9847A642F9D1094EC0
:10136000094D761B00F022F9B61006D00024013496
:1013700055F8043B9847A642F9D170BD0000000023
:10138000000000000000000000000000F0B486072C
:1013900043D0541E002A3ED0CAB2034602E014F1E4
:1013A000FF3438D303F8012B9D07F8D1032C2BD938
:1013B000CDB245EA05250F2C45EA054516D9A4F11D
:1013C00010073F0903F1200606EB071603F1100290
:1013D00042E9045542E902551032B242F8D104F014
:1013E0000F040137032C03EB07130DD91E462246C9
:1013F000043A032A46F8045BFAD8221F22F00302BB
:101400000432134404F003042CB1C9B21C4403F8A1
:10141000011B9C42FBD1F0BC704714460346C5E754
:101420002DE9F047244C2568D5F848410646884602
:1014300092469946BCB360681F2808DC431CEEB98D
:101440000230636044F820800020BDE8F0871B4B29
:1014500073B34FF4C870AFF30080044640B3D5F8BF
:1014600048310027C0E90037C5F848413846012314
:10147000C4F88871C4F88C71002EE1D004EB8005AB
:101480000122C5F888A0D4F8881182401143022EA9
:10149000C4F88811C5F80891D2D1D4F88C110A4348
:1014A000C4F88C21CCE705F5A674C5F84841C2E71D
:1014B0004FF0FF30C9E700BFA8150008000000008A
:1014C000024B13B10248FFF70DBF70470000000048
:1014D000111300082DE9F04F304B85B01B680193C4
:1014E00003F5A473039002938946019BD3F84861E6
:1014F0002EB3DDF808A04FF001087468651E0FD404
:10150000013406EB84040027B9F1000F1AD0D4F897
:1015100000314B4516D0013D6B1CA4F10404F3D1FE
:101520001F4B63B1D6E900327ABB73B33046CAF8B9
:101530000030AFF30080DAF80060002EDDD105B096
:10154000BDE8F08F73682268013BAB420CBF756049
:101550002760002ADFD0D6F88811D6F804B008FA40
:1015600005F30B4208D1904773685B45BDD1DAF8AB
:101570000030B342CFD0B8E7D6F88C01D4F8801051
:10158000034207D103989047EEE7B2461E46002E6D
:10159000B3D1D4E708469047E6E700BFA815000896
:0C15A00000000000FEE700BF300000204B
:0C15AC00F8B500BFF8BC08BC9E467047B4
:0C15B800F8B500BFF8BC08BC9E467047A8
:1015C4000000000000BD0105000000000000000054
:1015D40001020304060708090000000001020304D5
:1015E400010203040607080930000020000000007F
:1015F400000000001C03002084030020EC030020F2
:1016040000000000000000000000000000000000D6
:1016140000000000000000000000000000000000C6
:1016240000000000000000000000000000000000B6
:1016340000000000000000000000000000000000A6
:101644000000000000000000000000000000000096
:101654000000000000000000000000000000000086
:101664000000000000000000000000000000000076
:101674000000000000000000000000000000000066
:101684000000000000000000000000000000000056
:101694000000000000000000010000000000000045
:1016A4000E33CDAB34126DE6ECDE05000B0000000A
:1016B4000000000000000000000000000000000026
:1016C4000000000000000000000000000000000016
:1016D4000000000000000000000000000000000006
:1016E40000000000000000000000000000000000F6
:041A1C0009020008B3
:041A2000E1010008D8
:041A2400C1140008E1
:04000005080005EDFD
:00000001FF
