:020000040800F2
:1000000000800120591200088D0C00088F0C000898
:10001000910C0008930C0008950C000800000000EB
:10002000000000000000000000000000970C000825
:10003000990C0008000000009B0C00089D0C0008B3
:10004000A1120008A1120008A1120008A1120008C4
:10005000A1120008A1120008A1120008A1120008B4
:10006000A1120008250D0008A1120008A112000825
:10007000A1120008A1120008A1120008A112000894
:10008000A1120008A1120008910D00080000000054
:10009000000000000000000000000000A1120008A5
:1000A000A1120008A1120008A11200083F0D0008CB
:1000B000A1120008A1120008A1120008A112000854
:1000C000A1120008A1120008A1120008A112000844
:1000D000A1120008610D0008A11200080000000034
:1000E000ED0C0008A1120008A11200080000000099
:1000F000000000000000000000000000A112000845
:1001000000000000A1120008A1120008A1120008BE
:1001100000000000000000000000000000000000DF
:10012000A1120008A1120008A1120008A1120008E3
:10013000A112000800000000000000000000000004
:10014000000000000000000000000000A1120008F4
:10015000A1120008A1120008A1120008A1120008B3
:10016000A1120008A1120008000000000000000019
:10017000000000000000000000000000000000007F
:1001800000000000A11200080000000000000000B4
:04019000A1120008B0
:040194000000000067
:080198009000000001000000CE
:1001A0000348044B834202D0034B03B11847704706
:1001B000600400206004002000000000054806499B
:1001C000091A891001EBD171491002D0034B03B118
:1001D0001847704760040020600400200000000001
:1001E00010B5064C237843B9FFF7DAFF044B13B17F
:1001F0000448AFF300800123237010BD6804002081
:10020000000000009401000808B5044B1BB104492C
:100210000448AFF30080BDE80840CFE700000000CD
:100220006C04002094010008134B002B08BF114BF5
:100230009D46A3F5803A00218B460F461148124A8D
:10024000121A02F03DFF0D4B002B00D098470C4BCB
:10025000002B00D098470020002104000D000B481F
:1002600002F0DAFE02F008FF2000290000F08AFC0C
:1002700002F0D8FE000008000000000000000000AE
:1002800000000000680400205C06002045300008E3
:100290002DE9F04188B00121022001F09DFD0121EE
:1002A000102001F0C3FD294E07220621304601F03F
:1002B000F6FB07221146304601F0F1FB4FF0020831
:1002C0008DF80C8003238DF80D3000248DF80E403E
:1002D00001258DF80F5008AF402347F8183D3946E7
:1002E000304601F059FB802302933946304601F035
:1002F00053FB4FF4E1330493ADF81440ADF81640CE
:10030000ADF81840ADF81C400C23ADF81A30A6F536
:10031000744604A9304602F0DFFC2A4640F225511B
:10032000304602F025FE25238DF804308DF8054077
:100330008DF806808DF8075001A800F0BDFF294612
:10034000304602F053FD08B0BDE8F08100040240E1
:1003500010B504468021054802F027FE0128F9D196
:100360002146024802F06FFD10BD00BF00100140A1
:1003700070B506460D46002403E0305DFFF7E8FF48
:100380000134A542F9DC70BD00B583B001210846F7
:1003900001F022FD0121022001F01EFD4FF4004377
:1003A000009300238DF8043003228DF805208DF88A
:1003B00006308DF807306946064801F0EDFA4FF433
:1003C000816300936946044801F0E6FA03B05DF8E2
:1003D00004FB00BF000002400004024000B583B0EF
:1003E0000F21002001F022FE0321012001F01EFE5A
:1003F0000A21012001F01AFE4FF40043009300236C
:100400008DF8043010238DF8053001238DF8063067
:10041000684601F0A9F908230093684601F0A4F9A1
:100420004FF480630093684601F09EF903B05DF8D5
:1004300004FB00B583B028238DF8043000238DF829
:1004400005308DF806308DF8070001A800F034FF64
:1004500009238DF8043001A800F02EFF03B05DF8E9
:1004600004FB0B4B1B6913F4806F0FD10020084B6A
:100470001B6913F0080F01D040F00200054B1B6907
:1004800013F4004F01D040F0040070470120EEE764
:10049000000402400000024000B583B001210220A8
:1004A00001F09AFC0423009301238DF80430032308
:1004B0008DF8053000238DF806308DF80730694639
:1004C000024801F069FA03B05DF804FB0004024041
:1004D00070B58AB00121084601F07EFC0121084672
:1004E00001F0A4FC4FF4E063089302238DF824305C
:1004F00003238DF8253000248DF826408DF8274001
:100500002B4D08A9284601F047FA01220821284668
:1005100001F0C5FA01220921284601F0C0FA0122A2
:100520000A21284601F0BBFA0126ADF81460ADF8A7
:1005300016404FF47A730693ADF81C408DF81E40B8
:10054000A5F5803505A9284601F0E2FE6023ADF847
:100550000030ADF80260ADF804400294ADF80C40F4
:10056000ADF80E40ADF81040ADF81240694628468F
:1005700001F06FFF6946284601F0A0FF6946284652
:1005800001F0E0FF0821284602F0ACF808212846D7
:1005900002F0AFF80821284602F0B4F831462846A8
:1005A00002F01BFA3146284601F046FF0AB070BD42
:1005B0000000024030B583B00121042001F00CFCA2
:1005C0000121042001F008FC0121084601F004FC8F
:1005D0004FF4E053009301258DF8045003238DF868
:1005E000053000238DF806308DF807300E4C694633
:1005F000204601F0D1F9636903F4E05363614FF4DD
:10060000007300936946204601F0C6F9636923F43C
:1006100000736361402300938DF8065069460348D8
:1006200001F0BAF903B030BD0008024000000240FA
:1006300070B586B01025ADF804500023ADF8063033
:10064000ADF8083001260396ADF81030ADF8123041
:10065000ADF81430ADF81630074C01A9204601F072
:10066000B3FF0821204602F054F8324629462046BE
:1006700002F0DCF906B070BD0000014000B583B0A7
:100680001B238DF8043000238DF8053001238DF8ED
:1006900006308DF8070001A800F00EFE03B05DF8EB
:1006A00004FBF0B583B00121042001F095FB01218A
:1006B000022001F091FB0121084601F08DFB012190
:1006C000084601F089FB0121042001F085FB01218E
:1006D000022001F081FB0823009303238DF80430EE
:1006E0008DF8053000238DF806308DF80730124E56
:1006F0006946304601F050F9012700970F4C6946D2
:10070000204601F049F9802300930D4D69462846A3
:1007100001F042F900976946284601F03DF90225AB
:1007200000956946304601F037F900956946204644
:1007300001F032F903B0F0BD0008024000040240AD
:1007400000000240F0B58BB0074601214FF48070E5
:1007500001F06CFB002404948DF814408DF81540D2
:1007600006940794089401268DF82460094D04A985
:10077000284600F007FE0094019402940394684612
:1007800000F032FE072332463946284600F084FE48
:100790000BB0F0BD0020014010B50A4C01231A46F1
:1007A0000146204600F078FE204600F0BDFE022102
:1007B000044800F0A9FF0028F9D0024800F0EAFE42
:1007C00010BD00BF0020014070B58AB006460D463E
:1007D00001214FF4807001F029FB002404940123CF
:1007E0008DF814308DF815400694079408948DF810
:1007F000245004A90D4800F0C5FD00940194029412
:100800000394684600F0F0FD07E0621C0723D2B2B3
:10081000315D064800F040FE0134A542F5DC0121BF
:10082000024800F08EFE0AB070BD00BF00200140FB
:1008300000B583B012238DF8043001238DF8053004
:1008400000238DF806308DF8070001A800F034FD74
:1008500003B05DF804FB00BF10B582B00446082960
:1008600006D9012C14D054B1022C16D002B010BD00
:1008700013460A461946684600F0A6FBF1E79DF8C4
:10088000003013B100F052F9F0E700F034F9EDE771
:10089000BDF8000000F05AF9E8E79DF8000000F00C
:1008A00061F9E3E7434B00225A639A63DA6302F18A
:1008B000804202F50232536923F4E0535361013858
:1008C000052875D8DFE800F03C624F1629033A4B43
:1008D0005A6942F400625A615A6942F480525A617C
:1008E000364B1B88B3F57A7F28BF4FF47A73314AB1
:1008F00093637047304B5A6942F480625A615A6977
:1009000042F480525A612D4B1B88B3F57A7F28BF81
:100910004FF47A73274A53637047274B5A6942F45E
:1009200080625A615A6942F400625A61234B1B8803
:10093000B3F57A7F28BF4FF47A731E4A536370472A
:100940001D4B5A6942F400625A615A6942F480525E
:100950005A611A4B1B88B3F57A7F28BF4FF47A731C
:10096000144AD3637047144B5A6942F480625A6147
:100970005A6942F480525A61104B1B88B3F57A7F52
:1009800028BF4FF47A730B4AD36370470A4B5A69F6
:1009900042F480625A615A6942F400625A61074B1C
:1009A0001B88B3F57A7F28BF4FF47A73014A9363AB
:1009B000704700BF0000014000080240840400208E
:1009C000434B00225A639A63DA6302F1804202F5D4
:1009D0000232536923F4E05353610138052875D876
:1009E000DFE800F0623C4F1603293A4B5A6942F4A3
:1009F00080625A615A6942F400625A61364B1B8820
:100A0000B3F57A7F28BF4FF47A73314A9363704706
:100A1000304B5A6942F480625A615A6942F48052FA
:100A20005A612D4B1B88B3F57A7F28BF4FF47A7338
:100A3000274AD3637047274B5A6942F400625A61D0
:100A40005A6942F480525A61234B1B88B3F57A7F6E
:100A500028BF4FF47A731E4AD36370471D4B5A69FF
:100A600042F480625A615A6942F400625A611A4B38
:100A70001B88B3F57A7F28BF4FF47A73144A536307
:100A80007047144B5A6942F480625A615A6942F4C1
:100A900080525A61104B1B88B3F57A7F28BF4FF400
:100AA0007A730B4A536370470A4B5A6942F40062E7
:100AB0005A615A6942F480525A61074B1B88B3F558
:100AC0007A7F28BF4FF47A73014A9363704700BF5F
:100AD00000000140000802408404002008B5FFF730
:100AE00069FDFFF751FCFFF779FC0120FFF7A1FC3E
:100AF000FFF7EEFC08BD044B00229A70034A5369CD
:100B000023F040035361704784040020000002403A
:100B100008B5FFF7A6FC044B1B7813B1FFF750FF95
:100B200008BDFFF7BFFEFBE70400002008B5054A3B
:100B3000536943F040035361FFF7EAFF024B012280
:100B40009A7008BD000002408404002008B5044BE0
:100B500018809B78012B00D008BDFFF7D9FFFBE779
:100B60008404002008B5054B1870054B9B78012BB9
:100B700000D008BDFFF7CCFFFBE700BF040000205A
:100B800084040020394B1B68394AA2FB03239B09CC
:100B9000013BB3F1807F00D3FEE730B589B0354A21
:100BA0005360354BF02183F8231000239360072313
:100BB00013604FF4A06000F075FB01214FF48040FA
:100BC00001F034F9FFF764FB00F0B6F900284CD1CE
:100BD000FFF762FCFFF7EEFCFFF780FF0120FFF755
:100BE000C1FFFFF75EFD0D20FFF7ACFD012123489B
:100BF00000F016FC00F062F804460D4600F06CFAB6
:100C000000F05CF8CDE904010D20FFF7C5FDADF85B
:100C100018000820FFF7C0FDADF81A000720FFF705
:100C2000BBFDADF81C00082204A9684600F0CCF911
:100C3000062206A902A800F0C7F96A460E21002084
:100C400000F0B4F900F03AF8021B61EB0503002B49
:100C500008BF652AD2D300F031F804460D46084A91
:100C6000536983F004035361C8E7FEE708000020DE
:100C7000D34D621010E000E000ED00E000200140E4
:100C80000004024008B5FFF763FB08BD7047FEE7AC
:100C9000FEE7FEE7FEE77047704770474DF804BD7A
:100CA0000549D1E900BC1BF101024CF10003C1E987
:100CB00000235DF804BB704788040020014BD3E992
:100CC0000001704788040020F0B4074BD3E90067A7
:100CD000321847F100030449D1E900459D4208BF9D
:100CE0009442F5D3F0BC70478804002008B54FF457
:100CF000004000F09FFD012806D04FF4806000F016
:100D000099FD012807D008BD4FF4004000F09CFD7C
:100D1000FFF7FEFEF1E74FF4806000F095FDFFF76E
:100D2000F7FEF0E708B5082000F084FD012800D0A8
:100D300008BD082000F088FDFFF7EAFEF8E708B5D7
:100D40001021064801F089FE012800D008BD1021BD
:100D5000024801F08EFEAFF30080F7E7000001408B
:100D600010B540F22551094802F02AF9012800D0B7
:100D700010BD064C40F22551204602F044F92046B1
:100D800002F065F8C0B200F017F9F1E70010014079
:100D900008B540F20521074800F0C0FC012800D04A
:100DA00008BD40F20521034800F0CBFCAFF3008002
:100DB000F6E700BF002001400389013B04D4C2884C
:100DC0009A4204D0002070478388013BF7E7012056
:100DD000704700230381C380704738B504460D4631
:100DE000FFF7EAFF70B902462168E388581CE080EB
:100DF000CD54E188A388994201D0104638BD002324
:100E0000E380FAE74FF0FF32F7E70289C3889A429E
:100E10000CD00168531C9BB203818A5C81888B4291
:100E200001D010B2704700230381FAE74FF0FF3082
:100E30007047C3880381704784B06FF063030393E6
:100E400001930023032B09DC04AA1A4412F8041CA2
:100E500012F80C2C914227D10133F3E7174B03937F
:100E6000174B1B6800930023032B09DC04AA1A44C8
:100E700012F8101C12F8042C914218D10133F3E738
:100E8000104B02930F4B03930023032B09DC04AA9E
:100E90001A4412F8081C12F8042C91420AD10133AA
:100EA000F3E7002004B070476FF00200FAE76FF03C
:100EB0000300F7E76FF00400F4E700BF7856341240
:100EC000DC32000800C078C3044B1A881C2A03D007
:100ED000511C198013441871704700BF9004002002
:100EE00010B5044601460548FFF777FF5C2C00D09B
:100EF00010BD03210148FFF770FFF9E7B00400209F
:100F000038B50546044C5C212046FFF766FF2946AC
:100F10002046FFF762FF38BDB004002008B502E0AC
:100F2000C0B2FFF7AFFE0348FFF76FFFB0F1FF3F1E
:100F3000F6D108BDB004002038B50B4C04F12C03E9
:100F40002362B525A58404F12000FFF742FF04F1D8
:100F5000F003C4F8E430A4F8E85004F1E400FFF72B
:100F600038FFFFF769FF38BD90040020F8B504464C
:100F70000E4617460120FFF7C3FF2046FFF7B0FFDC
:100F80003046FFF7ADFF0024254605E0385D4540BB
:100F9000FFF7A6FF0134A4B2B3B2A342F6D82846A5
:100FA000FFF79EFF0220FFF7ABFFF8BD08B5FFF784
:100FB000DDFFFFF7B3FF08BD08B501460148FFF7A5
:100FC0000CFF08BD7405002000239A4208DD10B410
:100FD000CC5CC45401339A42FADC5DF8044B704790
:100FE000704708B5174B1A7983F8A5215A7983F809
:100FF000A6211988D31C994200D008BD1148811D33
:1010000000F5D470FFF7E0FF0023184606E00D4A14
:101010001A4492F8A82150400133DBB2094A92F8F1
:10102000A6119942F3D813461288013A13441B794A
:101030008342E2D1034B03F5D47293F8A501FFF785
:101040000BFCDAE79004002008B55C280ED01A4BA0
:1010500093F8C1313BB3022814D003281AD00128D9
:1010600009D0154B002283F8C12108BD124B012283
:1010700083F8C121F9E7104B012283F8C221002235
:101080001A80EEE7FFF7ADFF0B4B002283F8C22179
:101090001A80E6E7084B93F8C231002BE1D05C20C0
:1010A000FFF712FFDDE7044B93F8C231002BDCD0D1
:1010B000FFF70AFFD9E700BF9004002008B502E05F
:1010C000C0B2FFF7C1FF0348FFF79FFEB0F1FF3F3B
:1010D000F6D108BD7405002008B5FFF71FFFFFF724
:1010E000EDFF08BD194B1A6C42F080521A64184982
:1010F0000A6822F440420A609A689A609A6842F448
:1011000000429A609A6842F4A0529A60114A5A606A
:101110001A6842F080721A600C4B1B6813F0007F53
:10112000FAD00D4B40F202721A60A3F580639A6800
:1011300022F003029A609A6842F002029A60034B1E
:101140009B6803F00C03082BF9D17047003802406C
:101150000070004010540108003C024010B5104CD3
:10116000D4F8883043F47003C4F888300D4B1A6803
:1011700042F001021A60002199601A6822F084721C
:1011800022F480321A60084A5A601A6822F48022D7
:101190001A60D960FFF7A6FF4FF00063A36010BD8F
:1011A00000ED00E00038024010300024224B9B6824
:1011B00003F00C03042B15D0082B17D01BB11F4BC9
:1011C0001F4A1A6002E01D4B1D4A1A601A4B9B68A9
:1011D000C3F30313194A13441B79D9B21368CB40E4
:1011E00013607047154B164A1A60EFE7124B5A68A6
:1011F0005B6803F03F0312F4800F13D0104AB2FB78
:10120000F3F20D4B5B68C3F3881303FB02F30A4A46
:101210005268C2F3014201325200B3FBF2F3074AB3
:101220001360D3E7064AB2FBF3F2034B5B68C3F3E8
:10123000881303FB02F3EAE70038024008000020AD
:101240000024F400FC3200080000002058040020B4
:10125000680400205C060020002103E00B4B5B5873
:10126000435004310A480B4B42189A42F6D30A4ABB
:1012700002E0002342F8043B084B9A42F9D3FFF7FF
:101280006DFF01F0F9FEFFF77DFC7047FC320008AE
:101290000000002058040020680400205C060020A4
:1012A000FEE7000040F0BF6040F40030014BD86022
:1012B000704700BF00ED00E0C37853B9037803F036
:1012C0001F015B0901228A402033124941F8232083
:1012D0007047114BDB68DB43C3F30222C2F1040108
:1012E000C9B20F23134142788A40D2B281780B40B1
:1012F00013431B01DBB2027806490A4482F800332B
:10130000037803F01F005B090122824041F823208B
:10131000704700BF00E100E000ED00E021F0604117
:1013200021F07F010143014B9960704700ED00E01F
:1013300029B9054A136923EA000010617047024B7E
:101340001A6910431861704700ED00E0042805D0C9
:10135000054A136823F0040313607047024A1368B8
:1013600043F004031360704710E000E008B501216A
:101370004FF4807000F092FD00214FF4807000F077
:101380008DFD08BD10B4426822F0407222F48072D4
:101390000C790B6843EA04231343436083680C4AC7
:1013A0001A400B69CC6823438C6823434C7943EA89
:1013B000440313438360C36A23F470030A7D013A34
:1013C000D2B243EA0253C3625DF8044B704700BFD8
:1013D000FDF7FFC000230360037143718360C360A6
:1013E000036101230375704710B408494B68084A2C
:1013F0001A4003684468234384682343C068034356
:1014000013434B605DF8044B704700BF002301405D
:10141000E030FCFF0023036043608360C3607047DB
:1014200021B9836823F0010383607047836843F028
:10143000010383607047436823F4400323F400737F
:10144000194341607047416282627047436823F0EC
:101450001F0319434160704728B9064A536823F4B3
:10146000000353607047034A536843F4000353601A
:10147000704700BF0023014028B9064A536823F48F
:10148000800353607047034A536843F480035360FA
:10149000704700BF0023014070B409291DD9C568F9
:1014A000A1F10A0404EB44040726A64025EA060538
:1014B00003FA04F42C43C460062A1AD90C2A26D94C
:1014C000C36A0D3A02EB82021F24944023EA04030C
:1014D00001FA02F21A43C26217E0056901EB410604
:1014E0000724B44025EA040503FA06F42C430461FA
:1014F000E2E7436B013A02EB82021F24944023EAA5
:10150000040301FA02F21A43426370BC7047036B92
:10151000073A02EB82021F24944023EA040301FAF3
:1015200002F21A430263F0E7836843F0804383606A
:101530007047836813F0804F01D10020704701206D
:10154000704721B9836823F48063836070478368A0
:1015500043F480638360704721B9836823F00203FA
:1015600083607047836843F0020383607047436879
:1015700023F46043013943EA41334360704721B9A2
:10158000436823F4006343607047436843F4006397
:1015900043607047C06C80B27047014B1868704759
:1015A0000823014021B9836823F480738360704766
:1015B000836843F480738360704721B9836823F4A0
:1015C000007383607047836843F4007383607047DF
:1015D00028B9064A536823F4005353607047034AFE
:1015E000536843F400535360704700BF0023014029
:1015F00070B409291DD8056901EB41060724B440E0
:1016000025EA040503FA06F42C430461846BC4F351
:101610000153D31ADBB20233DBB203EB83031F2285
:101620009A4024EA020401FA03F31C43846370BC69
:101630007047C568A1F10A0404EB44040726A640DC
:1016400025EA060503FA04F42C43C460DEE7836B45
:1016500023F44013013943EA01538363704782B096
:10166000002301930190019B19440191019B1A6091
:1016700002B07047836823F4702319438160704778
:10168000836823F44013194381607047836843F4EF
:10169000800383607047836813F4800F01D10020BA
:1016A00070470120704721B9436823F48063436089
:1016B0007047436843F480634360704721B94368CF
:1016C00023F4805343607047436843F4805343607E
:1016D000704782B0002301930190019B1944283187
:1016E0000191019B186880B202B07047C9B2012312
:1016F00003FA01F122B9436823EA0101416070470E
:1017000043681943416070470368194201D10020C2
:10171000704701207047C9430160704710B44268A8
:10172000CCB20123A3401340026812EA112202D076
:101730002BB9002000E000205DF8044B7047012029
:10174000FAE76FEA11210160704700BF044B0022E5
:101750001A605A609A60DA60024A5A61704700BFA4
:10176000003C0140FFFF7F008379002B36D010B48E
:10177000204B1A68016822EA01021A605A6801685F
:1017800022EA01025A60027902F1804202F59E3299
:1017900011680468214311609A68016822EA010215
:1017A0009A60DA68016822EA0102DA604379102B54
:1017B0000AD003F1804303F59E331A6801680A4397
:1017C0001A605DF8044B70470A4B9A6801680A4337
:1017D0009A60DA6801680A43DA60F2E7037903F194
:1017E000804303F59E331A68016822EA01021A60F9
:1017F000704700BF003C01400023036003710C22CE
:10180000427183717047024A13691843106170472F
:10181000003C0140034B5B69034201D1002070474B
:1018200001207047003C0140014B5861704700BFE8
:10183000003C0140034B5B69034201D1002070472B
:1018400001207047003C0140014B5861704700BFC8
:10185000003C014008B5454B98421ED0444B98428D
:1018600024D0444B98422AD0434B984230D0434B2B
:10187000984236D0424B98423CD0424B984242D09C
:10188000414B984248D0414B98424ED0404B9842F1
:1018900056D0404B98425ED008BD0121084600F06A
:1018A000D3FA0021012000F0CFFAF5E70121022050
:1018B00000F0CAFA0021022000F0C6FAECE701218C
:1018C000042000F0C1FA0021042000F0BDFAE3E793
:1018D0000121082000F0B8FA0021082000F0B4FA35
:1018E000DAE70121102000F0AFFA0021102000F00B
:1018F000ABFAD1E70121202000F0A6FA0021202038
:1019000000F0A2FAC8E70121402000F09DFA002172
:10191000402000F099FABFE70121802000F094FAFE
:101920000021802000F090FAB6E701214FF480708A
:1019300000F08AFA00214FF4807000F085FAABE7DE
:1019400001214FF4007000F07FFA00214FF4007085
:1019500000F07AFAA0E701214FF4806000F074FAF9
:1019600000214FF4806000F06FFA95E7000002401C
:101970000004024000080240000C02400010024037
:101980000014024000180240001C024000200240E7
:10199000002402400028024000230F2B40D8F0B45E
:1019A00010E0C2689CB266000324B44022EA04023C
:1019B000C260C268CC7904FA05F51543C5600133ED
:1019C0000F2B2BD801229A400C68A243F7D1046850
:1019D0005D000322AA40D2431440046004680E79DB
:1019E000AE40344304600C79013CE4B2012CD8D8F9
:1019F00084682240826082684C79AC4022438260D5
:101A000044689FB20126BE4024EA0604446044684C
:101A10008A79BA4092B222434260C2E7F0BC704772
:101A200070474FF6FF7303600023037143718371A6
:101A3000C371704782B04FF480330193019B0B4315
:101A40000193019BC361C161019BC361C3690193A0
:101A5000C369019302B070470369194201D10020A4
:101A6000704701207047006980B27047436919428E
:101A700001D10020704701207047406980B2704753
:101A800001837047418370470AB9418370470183DE
:101A9000704741617047436959404161704730B4B4
:101AA00001F007039B009A40C908083150F8214013
:101AB0000F2505FA03F324EA030340F8213050F818
:101AC00021301A4340F8212030BC70470C4B1A6873
:101AD00042F001021A60002199601A6822F0A852AF
:101AE00022F410221A60074A5A60074AC3F8842079
:101AF0001A6822F480221A60D960C3F88C107047EB
:101B0000003802401030002400300020024B002238
:101B10001A701870704700BF02380240034A1368F9
:101B200023F0F80343EAC000106070470038024019
:101B3000014B1860704700BF00004742084B00226D
:101B40001A701A70012802D0042804D07047044B80
:101B500001221A707047024B05221A70704700BFAD
:101B600070380240014B1860704700BF800E47423A
:101B700041EA82115B08013B41EA034101430098BD
:101B800041EA0061014B5960704700BF00380240D4
:101B9000014B1860704700BF60004742090741EAE7
:101BA0008011024BC3F88410704700BF0038024018
:101BB000014B1860704700BF68004742090641EAC0
:101BC000801141EA0271024BC3F88810704700BFD0
:101BD00000380240014B1860704700BF7000474258
:101BE000014B1860704700BF4C004742034A93689E
:101BF00023F0EC63014319439160704700380240C1
:101C0000034A936823F07843014319439160704776
:101C100000380240034A936823F00303184390609E
:101C2000704700BF00380240024B986800F00C007B
:101C3000704700BF00380240034A936823F0F00366
:101C400018439060704700BF00380240034A936811
:101C500023F4E05318439060704700BF00380240FF
:101C6000034A936823F4604343EAC00090607047DE
:101C70000038024010B4294B9B6803F00C03042B7E
:101C800023D0082B24D013B1254B036001E0244B53
:101C90000360224CA368C3F303132249CB5CDAB27E
:101CA0000368D3404360A268C2F382228A5CD2B246
:101CB00023FA02F28260A268C2F342328A5CD2B294
:101CC000D340C3605DF8044B7047154B0360E0E7F9
:101CD000124B5A685B6803F03F0312F4800F12D076
:101CE0000F4AB2FBF3F20D4B5B68C3F3881303FB9F
:101CF00002F30A4A5268C2F3014201325200B3FBB6
:101D0000F2F30360C5E7064AB2FBF3F2034B5B68EC
:101D1000C3F3881303FB02F3EBE700BF0038024074
:101D20000024F4001C00002000F44073B3F5407F51
:101D300006D0094A136FC0F30B00184310677047B1
:101D400005498A6822F4F81220F0704323F44073A6
:101D500013438B60EDE700BF00380240014B186071
:101D6000704700BF3C0E4742014B1860704700BFF0
:101D7000400E4742014B1860704700BF5C0147426C
:101D8000044AD2F88C3023F01F0301381843C2F8FC
:101D90008C00704700380240054AD2F88C3023F49A
:101DA000F853013843EA0023C2F88C30704700BF73
:101DB00000380240044AD2F88C3023F440331843F0
:101DC000C2F88C00704700BF00380240014B186019
:101DD000704700BFE011474229B9054A136B23EA57
:101DE000000010637047024A136B1843106370477A
:101DF0000038024029B9054A536B23EA00005063BA
:101E00007047024A536B18435063704700380240D2
:101E100029B9054A136C23EA000010647047024A8E
:101E2000136C1843106470470038024029B9054A02
:101E3000536C23EA000050647047024A536C184305
:101E4000506470470038024029B9054A136923EAF3
:101E5000000010617047024A13691843106170470F
:101E60000038024029B9054A536923EA000050614D
:101E70007047024A53691843506170470038024066
:101E800029B9054A136A23EA000010627047024A22
:101E9000136A1843106270470038024029B9054A96
:101EA000536A23EA000050627047024A536A18439B
:101EB000506270470038024029B9054A136D23EA81
:101EC000000010657047024A136D18431065704793
:101ED0000038024029B9054A536D23EA00005065D5
:101EE0007047024A536D18435065704700380240EE
:101EF00029B9054A136E23EA000010667047024AAA
:101F0000136E1843106670470038024029B9054A1D
:101F1000536E23EA000050667047024A536E18431E
:101F20005066704700380240012805D0054A136FFB
:101F300023F0080313677047024A136F43F0080346
:101F4000136770470038024029B9054A137823EA1D
:101F5000000010707047024A1378184310707047E1
:101F60000D3802404309012B0CD0022B0DD0094B38
:101F70005B6F00F01F0023FA00F010F0010F07D193
:101F800000207047034B1B68F3E7024B1B6FF0E721
:101F9000012070470038024000B583B00023019350
:101FA0003120FFF7DFFF019B01330193019BB3F564
:101FB000A04F01D00028F3D03120FFF7D3FF18B98C
:101FC000002003B05DF804FB0120FAE7024A536FDA
:101FD00043F080735367704700380240034BDB685F
:101FE000184201D10020704701207047003802409C
:101FF000014B1870704700BF0E38024008B5012130
:102000004FF48040FFF74AFF00214FF48040FFF774
:1020100045FF08BD014B1860704700BF0038014004
:10202000014B1860704700BF2000274230B401F018
:1020300003039B000F2404FA03F58908074A0231C1
:1020400052F8214024EA050442F8214052F8214088
:102050009840204342F8210030BC704700380140CE
:10206000014B1860704700BFDC002742014B18602D
:10207000704700BF00042742044B1B6A13F4807FA3
:1020800001D1002070470120704700BF0038014097
:1020900030B4048CA4B224F00104A4B20484058BEF
:1020A000ADB2048CA4B225F0F3051B019BB21A4318
:1020B000154324F00A040C4344F00104058304840E
:1020C00030BC704730B4048CA4B224F01004A4B225
:1020D0000484058B048CA4B2090189B225F44075EF
:1020E0002D052D0D1B039BB22B43120292B21A43F6
:1020F00024F0A0040C4344F010040283048430BC98
:10210000704730B4048CA4B224F48074A4B2048464
:10211000858BADB2048CA4B2090289B225F0F30517
:102120001B019BB21A43154324F420640C4344F46E
:1021300080748583048430BC704730B4048CA4B2AE
:1021400024F48054A4B20484858B048C090389B2DE
:1021500025F440752D052D0D120292B22A431B0362
:102160009BB2134324F400546404640C214341F4EF
:1021700080518383018430BC704708B5574B984227
:1021800031D0B0F1804F37D0554B98423DD0554BB0
:10219000984243D0544B984249D0544B98424FD028
:1021A000534B984255D0534B98425BD0524B984278
:1021B00061D0524B984269D0514B984271D0514BEB
:1021C000984279D0504B98427FD0504B984212D1D0
:1021D00001214FF48070FFF753FE00214FF480700F
:1021E000FFF74EFE07E001210846FFF757FE0021EA
:1021F0000120FFF753FE08BD01210846FFF740FE0E
:1022000000210120FFF73CFEF5E701210220FFF746
:1022100037FE00210220FFF733FEECE70121042006
:10222000FFF72EFE00210420FFF72AFEE3E701213D
:102230000820FFF725FE00210820FFF721FEDAE73E
:1022400001211020FFF71CFE00211020FFF718FECF
:10225000D1E701212020FFF713FE00212020FFF706
:102260000FFEC8E701210220FFF718FE002102201F
:10227000FFF714FEBFE701214FF48030FFF70EFE99
:1022800000214FF48030FFF709FEB4E701214FF43D
:102290000030FFF703FE00214FF40030FFF7FEFD92
:1022A000A9E701214FF48020FFF7F8FD00214FF44A
:1022B0008020FFF7F3FD9EE701214020FFF7E0FDBE
:1022C00000214020FFF7DCFD95E701218020FFF78A
:1022D000D7FD00218020FFF7D3FD8CE700000140EF
:1022E0000004004000080040000C004000100040C6
:1022F000001400400004014000400140004401403F
:102300000048014000180040001C00400020004030
:1023100003889BB21B4A904212D002F58062904221
:102320000ED0B0F1804F0BD0A2F58032904207D092
:1023300002F58062904203D002F58062904203D1A0
:1023400023F070034A8813430F4A904208D002F5E5
:102350008062904204D023F440739BB20A891343F5
:1023600003804B68C3620B880385064B984203D0F9
:1023700003F58063984201D18B7A0386012383821F
:10238000704700BF00000140001000404FF0FF33D5
:10239000436000230380038143808372704701857B
:1023A0008282704703889BB223F070031943018037
:1023B000704741627047C1627047406A7047008D44
:1023C000704731B903889BB223F002039BB20380AC
:1023D0007047038843F002030380704731B90388D4
:1023E0009BB223F004039BB203807047038843F041
:1023F00004030380704731B903889BB223F0800344
:102400009BB203807047038843F0800303807047CA
:1024100003889BB223F008039BB20380038819430F
:102420000180704703889BB223F440739BB2038002
:10243000038819430180704731B903889BB223F0A8
:1024400001039BB203807047038843F001030380BC
:10245000704730B4038C9BB223F001039BB203841A
:10246000038C9BB28588ADB2028B92B222F07302CC
:102470000C88224323F002038C891C434B8823439E
:102480000D4CA04203D004F58064A0420DD123F08E
:102490000803CC89234323F004038C88234325F4C9
:1024A00040750C8A25434C8A2543858002838A68BF
:1024B0004263038430BC70470000014030B4038C99
:1024C0009BB223F010039BB20384038C9BB28588DC
:1024D000ADB2048BA4B224F4E6440A88120292B28C
:1024E000144323F020038A89120192B21A434B88C5
:1024F0001B019BB21343124A904203D002F5806243
:10250000904215D123F08003CA89120192B213437D
:1025100023F040038A88120192B2134325F44065E8
:102520000A8A920092B215434A8A920092B21543E7
:10253000858004838A688263038430BC704700BF4F
:102540000000014030B4038C9BB223F480739BB233
:102550000384038C9BB28588ADB2848BA4B224F033
:1025600073040A88144323F400738A89120292B216
:102570001A434B881B029BB21343124A904203D06A
:1025800002F58062904215D123F40063CA891202D9
:1025900092B2134323F480638A88120292B21343E7
:1025A00025F440550A8A120192B215434A8A120153
:1025B00092B21543858084838A68C263038430BCE9
:1025C000704700BF0000014030B4038C9BB223F47D
:1025D00080539BB20384038C9BB28588ADB2828BFF
:1025E00092B222F4E6440A88120292B2224323F401
:1025F00000538C892403A4B21C434B881B039BB259
:1026000023430A4CA04203D004F58064A04205D1C4
:1026100025F480450C8AA401A4B2254385808283D9
:102620008A680264038430BC704700BF0000014028
:10263000002303804380838083608381C38103827E
:102640004382704730B400F1180401238B409BB2E1
:10265000058C25EA0303038481B108290ED00439CF
:10266000C1F34E010B5923F4E0431B041B0C0B5127
:102670000B59120292B21A430A5109E049080B5948
:1026800023F070031B041B0C0B510B591A430A5106
:1026900030BC70474163704781637047C1637047C6
:1026A00001647047038B9BB223F0700319430183CD
:1026B0007047038B9BB223F4E043090289B20B43BA
:1026C00003837047838B9BB223F07003194381838C
:1026D0007047838B9BB223F4E043090289B20B431A
:1026E00083837047038B9BB223F008031943018354
:1026F0007047038B9BB223F40063090289B20B433A
:1027000003837047838B9BB223F0080319438183B3
:102710007047838B9BB223F40063090289B20B4399
:1027200083837047038B9BB223F004031943018317
:102730007047038B9BB223F48063090289B20B4379
:1027400003837047838B9BB223F004031943818377
:102750007047838B9BB223F48063090289B20B43D9
:1027600083837047038B9BB223F08003194301835B
:102770007047038BC3F30E03090289B21943018327
:102780007047838B9BB223F080031943818370478A
:10279000838BC3F30E03090289B219438183704707
:1027A000038C9BB223F00203194301847047038C0E
:1027B0009BB223F00803194301847047038C9BB23A
:1027C00023F02003090189B20B4303847047038C73
:1027D0009BB223F08003090189B20B430384704745
:1027E000038C9BB223F40073090289B20B43038468
:1027F0007047038C9BB223F40063090289B20B4338
:1028000003847047038C9BB223F40053090389B2FD
:102810000B430384704710B401238B409BB2048C9C
:1028200024EA03030384038C02FA01F189B21943F9
:1028300001845DF8044B704710B404238B409BB2B5
:10284000048C24EA03030384038C02FA01F189B2A5
:10285000194301845DF8044B7047002303804380D3
:1028600001228280C38003817047406B7047806B78
:102870007047C06B7047006C7047038B9BB223F0AE
:102880000C039BB20383038B194301837047038BB3
:102890009BB223F440639BB20383038B090289B28A
:1028A000194301837047F8B505460C464988C9B9F4
:1028B0000226A288012A17D001272388B3B12389D1
:1028C0002846FFF7FFFBE1882846FFF7E0FF238952
:1028D0003A4631462846FFF7DBFBE1882846FFF7FA
:1028E000CCFFF8BD0026E4E70227E6E72389284667
:1028F000FFF7CEFBE1882846FFF7BFFF23893A4662
:1029000031462846FFF7DEFBE1882846FFF7BFFF88
:10291000E7E7838B9BB223F00C039BB28383838B0B
:10292000194381837047838B9BB223F440639BB22E
:102930008383838B090289B219438183704738B539
:1029400005460C460B886BB1042B15D0082B1DD007
:102950000B898A884988FFF7F0FBE1882846FFF752
:10296000E2FF38BD0B898A884988FFF791FBE1882F
:102970002846FFF782FFF4E70B898A884988FFF72A
:10298000A1FBE1882846FFF782FFEAE70B898A88E6
:102990004988FFF7B6FBE1882846FFF7BAFFE0E772
:1029A000F0B40F88B1F802C08E88CD880C894A89AE
:1029B0008B8947EA0C013143294321430A431343DE
:1029C000A0F84430F0BC704700230380438083802C
:1029D000C380038143818381704731B9B0F84430AB
:1029E000C3F30E03A0F844307047B0F8443043F40A
:1029F0000043A0F84430704731B983889BB223F07C
:102A000004039BB283807047838843F00403838070
:102A1000704731B983889BB223F001039BB2838056
:102A20007047838843F001038380704722B983890C
:102A300023EA0101818170478389194381817047AD
:102A400081827047038A194201D10020704701201A
:102A50007047C94389B201827047028A83890B405B
:102A6000114202D01BB9002070470020704701209E
:102A70007047C94389B2018270470A43A0F84820D1
:102A8000704722B9838923EA0101818170478389D4
:102A900019438181704731B983889BB223F00803C1
:102AA0009BB283807047838843F00803838070471C
:102AB00003899BB223F007039BB20381704703890C
:102AC0009BB223F0700319430181704710B504468F
:102AD000FFF7F5FF238943F00703238110BD38B5C5
:102AE00004460D461146602D0BD00122FFF7D0FAA7
:102AF00029462046FFF7E3FF238943F0070323819C
:102B000038BD0122FFF7DEFAF2E783889BB223F09B
:102B100070039BB283808388194381807047038947
:102B20009BB223F007039BB2038103891943018100
:102B3000704703899BB223F080039BB20381038912
:102B400019430181704710B40489E4B21B029BB29F
:102B500013430B43234303815DF8044B704710B5C7
:102B60000446FFF7F0FF238943F07703238110BD6C
:102B700010B50446FFF7E7FF238943F48043238120
:102B800010BD70B40689B6B2048BA4B2058CADB288
:102B900026F00706314324F4407424F0030444F47F
:102BA000807444F0010425F022051B019BB21A43F6
:102BB000154301810483058470BC704731B9838853
:102BC0009BB223F080039BB283807047838843F0DD
:102BD000800383807047A0F85010704708B5364BCB
:102BE000984215D0354B98421BD0354B984223D094
:102BF000344B98422BD0344B984233D0334B9842CD
:102C00003BD0334B984241D0324B984249D008BD1B
:102C100001211020FFF742F900211020FFF73EF9B3
:102C2000F5E701214FF40030FFF72AF900214FF4B6
:102C30000030FFF725F9EAE701214FF48020FFF784
:102C40001FF900214FF48020FFF71AF9DFE7012177
:102C50004FF40020FFF714F900214FF40020FFF794
:102C60000FF9D4E701214FF48010FFF709F9002193
:102C70004FF48010FFF704F9C9E701212020FFF786
:102C80000DF900212020FFF709F9C0E701214FF0DD
:102C90008040FFF7F5F800214FF08040FFF7F0F893
:102CA000B5E701214FF00040FFF7EAF800214FF0AF
:102CB0000040FFF7E5F8AAE700100140004400409B
:102CC00000480040004C004000500040001401400B
:102CD00000780040007C004030B585B004460D46C9
:102CE000038A9BB223F44053CA8813430382838927
:102CF0009BB223F4B05323F00C03898828896A8996
:102D000001430A431343A381A38A9BB223F4407374
:102D1000AA891343A3826846FEF7ACFF204B9C426E
:102D200005D003F580639C4201D0029B00E0039B29
:102D3000A28912F4004F1FD103EB830303EB83033B
:102D400029688900B3FBF1F1164BA3FB0123580955
:102D50000501642300FB1313A28912F4004F14D160
:102D60001B0132330F4AA2FB0323C3F343132B434C
:102D70009BB2238105B030BD03EB830303EB8303D8
:102D800029684900B3FBF1F1DEE7DA003232054B86
:102D9000A3FB0232C2F3421242EA0503E8E700BF96
:102DA000001001401F85EB514FF4165303600023C0
:102DB0008380C38003810C2242818381704770B479
:102DC000038A9BB223F470620D884E888C88CB886E
:102DD00045EA060121430B431343038270BC70474D
:102DE0000023038043808380C380704731B9838987
:102DF0009BB223F400539BB283817047838943F4D1
:102E0000005383817047038B03F47F430383038B59
:102E100019430183704721B98389C3F30E0383816A
:102E20007047838943F400438381704731B9838AB3
:102E30009BB223F400639BB283827047838A43F47E
:102E4000006383827047C1F30801818070478088E6
:102E5000C0F308007047038A9BB223F00F039BB2B4
:102E60000382038A19430182704731B983899BB277
:102E700023F002039BB283817047838943F00203EE
:102E80008381704783899BB223F400639BB2838163
:102E90008389194381817047038A9BB223F0200301
:102EA0009BB20382038A19430182704731B9038AB6
:102EB0009BB223F480439BB203827047038A43F49E
:102EC000804303827047838943F001038381704705
:102ED00031B9838A9BB223F008039BB28382704787
:102EE000838A43F0080383827047038BDBB203833A
:102EF000038B43EA01210183704731B9838A9BB276
:102F000023F020039BB283827047838A43F020031F
:102F10008382704731B9838A9BB223F010039BB23E
:102F200083827047838A43F0100383827047838AC9
:102F30009BB223F004039BB28382838A194381826C
:102F4000704731B9838A9BB223F002039BB283821C
:102F50007047838A43F002038382704722B9838AD1
:102F600023EA010181827047838A19438182704775
:102F700010B4C1F3421401F01F01012303FA01F15F
:102F80009C420AD0022C0AD0143052B9036823EABA
:102F9000010101605DF8044B70470C30F5E710301B
:102FA000F3E7036819430160F4E70388194201D18C
:102FB0000020704701207047C94389B201807047E3
:102FC00010B4C1F3421201F01F040123A340012AEF
:102FD0000DD0022A0ED0828A1340090A012202FA79
:102FE00001F10288114043B159B9002006E08289FD
:102FF0001340F2E7028A1340EFE700205DF8044B2C
:1030000070470120FAE7090A01238B409BB2DB439A
:103010009BB20380704700BF002301461A46184642
:1030200000F098B808B50021044600F0EDF8044B14
:103030001868C36B03B19847204600F04DF900BFF4
:10304000E032000838B50A4C0A4D641BA4100AD0BF
:1030500004F18043013B05EB8305013C55F804393D
:103060009847002CF9D1BDE8384000F041B900BFC5
:10307000000000000000000070B50D4E0D4D761BE5
:10308000B61006D00024013455F8043B9847A642F8
:10309000F9D1094E094D761B00F024F9B61006D07F
:1030A0000024013455F8043B9847A642F9D170BD7D
:1030B0000000000000000000000000000000000010
:1030C000F0B4860743D0541E002A3ED0CAB203464D
:1030D00002E014F1FF3438D303F8012B9D07F8D137
:1030E000032C2BD9CDB245EA05250F2C45EA054521
:1030F00016D9A4F110073F0903F1200606EB0716C5
:1031000003F1100242E9045542E902551032B2427D
:10311000F8D104F00F040137032C03EB07130DD98A
:103120001E462246043A032A46F8045BFAD8221FB8
:1031300022F003020432134404F003042CB1C9B298
:103140001C4403F8011B9C42FBD1F0BC70471446A1
:103150000346C5E72DE9F047244C2568D5F84841DA
:103160000646884692469946BCB360681F2808DC2C
:10317000431CEEB90230636044F820800020BDE8B3
:10318000F0871B4B73B34FF4C870AFF30080044655
:1031900040B3D5F848310027C0E90037C5F84841A9
:1031A00038460123C4F88871C4F88C71002EE1D030
:1031B00004EB80050122C5F888A0D4F8881182406C
:1031C0001143022EC4F88811C5F80891D2D1D4F861
:1031D0008C110A43C4F88C21CCE705F5A674C5F818
:1031E0004841C2E74FF0FF30C9E700BFE0320008B6
:1031F00000000000024B13B10248FFF70DBF7047FB
:1032000000000000453000082DE9F04F304B85B03C
:103210001B68019303F5A473039002938946019BF5
:10322000D3F848612EB3DDF808A04FF001087468A8
:10323000651E0FD4013406EB84040027B9F1000F9A
:103240001AD0D4F800314B4516D0013D6B1CA4F1C7
:103250000404F3D11F4B63B1D6E900327ABB73B3D8
:103260003046CAF80030AFF30080DAF80060002E74
:10327000DDD105B0BDE8F08F73682268013BAB4239
:103280000CBF75602760002ADFD0D6F88811D6F809
:1032900004B008FA05F30B4208D1904773685B4508
:1032A000BDD1DAF80030B342CFD0B8E7D6F88C0100
:1032B000D4F88010034207D103989047EEE7B24656
:1032C0001E46002EB3D1D4E708469047E6E700BF7C
:1032D000E032000800000000FEE700BF785634121C
:0432E000300000209A
:0C32E400F8B500BFF8BC08BC9E4670475F
:0C32F000F8B500BFF8BC08BC9E46704753
:1032FC00000000000100000000BD010500000000FE
:10330C000000000001020304060708090000000089
:10331C00010203040102030406070809300000201F
:10332C00000000001C03002084030020EC0300209C
:10333C000000000000000000000000000000000081
:10334C000000000000000000000000000000000071
:10335C000000000000000000000000000000000061
:10336C000000000000000000000000000000000051
:10337C000000000000000000000000000000000041
:10338C000000000000000000000000000000000031
:10339C000000000000000000000000000000000021
:1033AC000000000000000000000000000000000011
:1033BC000000000000000000000000000000000001
:1033CC0000000000000000000100000000000000F0
:1033DC000E33CDAB34126DE6ECDE05000B000000B5
:1033EC0000000000000000000000000000000000D1
:1033FC0000000000000000000000000000000000C1
:10340C0000000000000000000000000000000000B0
:10341C0000000000000000000000000000000000A0
:04375400090200085E
:04375800E101000883
:04375C00F53100083B
:040000050800125984
:00000001FF
