:020000040800F2
:1000000000000220010C00088D0700089B07000873
:10001000A1070008A7070008AD07000800000000BE
:10002000000000000000000000000000B30700080E
:10003000C107000800000000CF070008DD07000826
:10004000490C0008490C0008490C0008490C00083C
:10005000490C0008490C0008490C0008490C00082C
:10006000490C0008490C0008490C0008490C00081C
:10007000490C0008490C0008490C0008490C00080C
:10008000490C0008490C0008490C0008490C0008FC
:10009000490C0008490C0008490C0008490C0008EC
:1000A000490C0008490C0008490C0008490C0008DC
:1000B000490C0008490C0008490C0008490C0008CC
:1000C000490C0008490C0008490C0008490C0008BC
:1000D000490C0008DD050008490C0008490C00081F
:1000E000E9080008490C0008490C0008490C000800
:1000F000490C0008490C0008490C0008490C00088C
:10010000490C0008490C0008490C0008490C00087B
:10011000490C0008490C0008490C0008490C00086B
:10012000490C0008490C0008490C0008490C00085B
:10013000490C0008490C0008490C0008490C00084B
:10014000490C0008490C0008490C0008490C00083B
:10015000490C0008490C0008490C0008490C00082B
:10016000490C0008490C0008490C0008490C00081B
:10017000490C0008490C0008490C0008490C00080B
:08018000490C0008490C0008BD
:040188000000000073
:08018C007400000001000000F6
:1001940010B5054C237833B9044B13B10448AFF3BD
:1001A40000800123237010BDA00400200000000083
:1001B400880100080C4B43B10C480D4910B5AFF34E
:1001C40000800C48036823B910BD0A48036833B99A
:1001D4007047094B002BF7D0BDE810401847064B79
:1001E400002BF5D0184700BF00000000880100086C
:1001F400A40400209404002000000000154B002BF0
:1002040008BF134B9D46A3F5803A00218B460F4649
:100214001348144A121A04F0E3FB0F4B002B00D0CE
:1002240098470E4B002B00D0984700200021040073
:100234000D000D48002802D00C4804F09DFC04F089
:10024400A7FB2000290000F05FFA04F091FB00BF37
:100254000000080000000000000000000000000092
:10026400A0040020EC0400207D4B0008894B00080A
:1002740080B400AF054A054B5B6943F0200353612A
:1002840000BFBD465DF8047B704700BF000002401C
:1002940080B400AF054A054B5B6923F0200353612A
:1002A40000BFBD465DF8047B704700BF00000240FC
:1002B40080B58AB000AF0121102001F051FD012169
:1002C400012001F0CDFD4FF428533B62022387F84F
:1002D4002430032387F82530002387F826300023B1
:1002E40087F8273007F1200319462D4800F0AAFFAC
:1002F400012209212A4801F014F901220B2128487E
:1003040001F00FF901220D21254801F00AF94FF4FB
:10031400FA63BB610023BB820023BB830023FB82FF
:100324000023BB7707F1140319461E4802F03CF979
:1003340060233B8001237B800023BB801A4B1B88F6
:10034400BB600023BB810023FB8100233B8200238D
:100354007B823B461946134802F0C9FA082111482A
:1003640002F0DDFD3B4619460E4802F03BFB082136
:100374000C4802F0F0FD3B4619460A4802F0BAFB6D
:100384000821084802F005FE0121064803F0FBF9A4
:100394000121044802F08BFA00BF2837BD4680BD16
:1003A4000010024000000140BC04002080B582B06F
:1003B40000AFFFF77DFF0121012001F0D1FC0121F5
:1003C400102001F02DFD0E233B6001233B7103231C
:1003D4007B710023BB710023FB713B4619460E4819
:1003E40000F030FF0C4A0C4B5B6923F00E035361A1
:1003F40020233B600123BB713B461946064800F0AD
:1004040021FF054A044B5B6923F02003536100BFBD
:100414000837BD4680BD00BF0000024080B582B0F1
:1004240000AF0346FB80FB88B3F5FA6F02D94FF4A3
:10043400FA63FB800C4AFB8813800B4B1B8819461C
:100444000A4802F0C0FC084B1B881946074802F012
:10045400C8FC054B1B881946044802F0D0FC00BFB9
:100464000837BD4680BD00BFBC0400200000014029
:1004740080B483B000AF0346FB71FB79062B39D8F7
:10048400FB79002B36D01E4A1D4B5B6923F00E030B
:1004940053611C4B00225A631A4B00229A63194B76
:1004A4000022DA631649164B5A69FB79013B164858
:1004B40050F8233013434B61FB79013B134A52F844
:1004C4002330B3F5006F0AD0B3F5005F0CD0B3F559
:1004D400007F10D10B4B0E4A12885A630BE0094B74
:1004E4000B4A12889A6306E0064B094A1288DA63BB
:1004F40000BF00E000BF0C37BD465DF8047B7047C9
:1005040000000240000001401C0000200400002004
:10051400BC04002080B588B000AF0121022001F0A6
:100524001FFC0121102001F09BFC07220621284812
:1005340000F0F7FF07220721254800F0F2FF02230D
:100544003B7303237B730023BB730123FB7340239F
:10055400BB6007F1080319461D4800F073FE8023B1
:10056400BB6007F108031946194800F06BFE4FF40D
:1005740096433B610023BB820023FB8200233B8321
:100584000023BB830C237B8307F110031946114816
:1005940003F0C2FD012240F225510E4804F0FAF89E
:1005A4004FF4A06000F050FB25233B7100237B71C6
:1005B4000023BB710123FB713B1D184600F058FB5F
:1005C4000121044803F0C0FE00BF2037BD4680BDB2
:1005D400000402400010014080B582B000AF40F238
:1005E4002551214804F04BF90346012B37D140F241
:1005F40025511D4804F09EF91B4803F036FF0346BD
:10060400FB80FB882B2B02D02D2B16D027E0174B19
:100614001B8803F5FA739AB2144B1A80134B1B8888
:10062400B3F5FA6F03D9114B4FF4FA621A800F4BEA
:100634001B881846FFF7F2FE11E00C4B1B88B3F53C
:10064400FA7F06D3094B1B88A3F5FA739AB2074BBA
:100654001A80064B1B881846FFF7E0FE00BF00BF58
:100664000837BD4680BD00BF00100140BE04002015
:1006740080B483B000AF03463960FB7197F907304B
:10068400002B0BDA0D49FB7903F00F03043B3A68A6
:10069400D2B21201D2B20B441A7609E0084997F992
:1006A40007303A68D2B21201D2B20B4483F8002365
:1006B40000BF0C37BD465DF8047B704700ED00E0D9
:1006C40000E100E080B582B000AF78607B68013B58
:1006D400B3F1807F01D301230FE00A4A7B68013B19
:1006E40053600F214FF0FF30FFF7C2FF054B00228C
:1006F4009A60044B07221A60002318460837BD4647
:1007040080BD00BF10E000E080B500AF0D4B1B685A
:100714000D4AA2FB03239B091846FFF7D3FF0346A8
:10072400002B00D0FEE700F041FAFFF73FFEFFF791
:100734009FFD4FF4FA70FFF771FE00F06BF8FFF7BE
:10074400E9FEFEE734000020D34D621090B585B079
:1007540000AF786000F052F8C7E9020100BF00F072
:100764004DF80A460146D7E90234CB1A62EB040479
:100774007A6811464FF00002A24208BF9942EED2B5
:1007840000BF1437BD4690BD80B400AF00BFBD4666
:100794005DF8047B704780B400AFFEE780B400AF1F
:1007A400FEE780B400AFFEE780B400AFFEE780B49C
:1007B40000AF00BFBD465DF8047B704780B400AF56
:1007C40000BFBD465DF8047B704780B400AF00BF36
:1007D400BD465DF8047B704790B400AF064BD3E987
:1007E4000034013344F10004034AC2E9003400BF79
:1007F400BD4690BC704700BFC004002090B400AF59
:10080400034BD3E9003418462146BD4690BC7047DB
:10081400C004002080B586B000AF0121082001F09B
:100824009FFA01214FF4804001F01AFB00233B732F
:100834000023FB734FF48063BB6007F10803194680
:10084400274800F0FFFC4FF40063BB6007F1080386
:100854001946234800F0F6FC4FF48053BB6007F1BF
:10086400080319461E4800F0EDFC0A21032001F09C
:100874003FFD0B21032001F03BFD0C21032001F07F
:1008840037FD4FF480633B6100233B7510237B7578
:100894000123BB7507F11003184600F033FB4FF436
:1008A40000633B6107F11003184600F02BFB4FF483
:1008B40080533B6107F11003184600F023FB282303
:1008C4003B710F237B710F23BB710123FB713B1D14
:1008D400184600F0CDF900BF1837BD4680BD00BFF3
:1008E400000C024080B582B000AF4FF4E05000F03D
:1008F400E7FB154800F08AFD0346FB80FB889B0A52
:100904009BB203F00703FB808021104803F08AFFA9
:100914000346012B06D1FB8830339BB219460B48A2
:1009240003F091FDFB88DBB21846FFF7A1FDFB88BD
:10093400052B05D1044A044B5B6983F4804353615E
:1009440000BF0837BD4680BD000C024000100140C6
:1009540080B500AF164A164BD3F8883043F47003C1
:10096400C2F88830134A134B1B6843F00103136029
:10097400104B00229A600F4A0E4B1B6823F08473BD
:1009840023F4803313600B4B0B4A5A60094A094B1A
:100994001B6823F480231360064B0022DA6000F006
:1009A40089F8034B4FF000629A6000BF80BD00BF1E
:1009B40000ED00E0003802401030002480B487B01D
:1009C40000AF00233B6100237B610223FB60002313
:1009D400BB6002237B60324B9B6803F00C033B61DA
:1009E4003B69042B07D0082B09D0002B3DD12D4B9C
:1009F4002D4A1A603DE02B4B2C4A1A6039E0284BF3
:100A04005B689B0D03F00103BB60254B5B6803F03F
:100A14003F037B60BB68002B0CD0244A7B68B2FB8D
:100A2400F3F31F4A52689209C2F3080202FB03F36C
:100A34007B610BE01C4A7B68B2FBF3F3184A5268F3
:100A44009209C2F3080202FB03F37B61144B5B6857
:100A54001B0C03F0030301335B00FB607A69FB6842
:100A6400B2FBF3F30F4A136003E00E4B0E4A1A6015
:100A740000BF0B4B9B681B0903F00F030C4AD35CAC
:100A8400DBB23B61074B1A683B6922FA03F3054A60
:100A9400136000BF1C37BD465DF8047B704700BF80
:100AA40000380240340000200024F40000127A00D0
:100AB4003800002080B483B000AF00237B600023A3
:100AC4003B60364A354B1B6843F480331360334B29
:100AD4001B6803F400333B607B6801337B603B6835
:100AE400002B03D17B68B3F5A04FF0D12B4B1B68CF
:100AF40003F40033002B02D001233B6001E0002308
:100B04003B603B68012B42D1244A244B1B6C43F0CD
:100B140080531364224A224B1B6843F440431360FE
:100B24001E4A1E4B9B6893601C4A1C4B9B6843F4F3
:100B340000439360194A194B9B6843F4A053936094
:100B4400164B184A5A60154A144B1B6843F08073BD
:100B5400136000BF114B1B6803F00073002BF9D026
:100B6400114B40F205721A600C4A0C4B9B6823F03F
:100B740003039360094A094B9B6843F002039360A3
:100B840000BF064B9B6803F00C03082BF9D100BF90
:100B94000C37BD465DF8047B704700BF0038024047
:100BA4000070004008544007003C024080B582B009
:100BB40000AF0121082001F0D3F84FF470433B60EB
:100BC40001233B710023BB7103237B710023FB7161
:100BD4003B461946034800F035FB00BF0837BD46C5
:100BE40080BD00BF000C0240C84C0008000000207B
:100BF4008C040020A0040020EC040020002103E069
:100C04000B4B5B58435004310A480B4B42189A4231
:100C1400F6D30A4A02E0002342F8043B084B9A4206
:100C2400F9D3FFF795FE03F0B3FEFFF76DFD7047B0
:100C3400C84C0008000000208C040020A004002000
:100C4400EC040020FEE7000080B483B000AF7860BD
:100C5400064A7B6843F0BF6343F40033D36000BFAC
:100C64000C37BD465DF8047B704700BF00ED00E023
:100C740080B485B000AF78600023FB730023BB739E
:100C84000F237B737B68DB78002B39D0274BDB6821
:100C9400DB431B0ADBB203F00703FB73FB7BC3F1EB
:100CA4000403BB737A7BFB7B42FA03F37B737B689D
:100CB4005B781A46BB7B02FA03F3FB737B689A7872
:100CC4007B7B1340DAB2FB7B1343FB73FB7B1B017F
:100CD400FB73174A7B681B781344FA7B83F8002361
:100CE400134A7B681B785B09DBB218467B681B7868
:100CF40003F01F03012101FA03F342F820300FE04F
:100D04000B497B681B785B09DBB218467B681B7850
:100D140003F01F0301229A4000F1200341F823202D
:100D240000BF1437BD465DF8047B704700ED00E05A
:100D340000E100E080B483B000AF78603960074917
:100D44003B6823F0604323F07F037A6813438B608E
:100D540000BF0C37BD465DF8047B704700ED00E032
:100D640080B483B000AF03460A46FB711346BB71DF
:100D7400BB79002B06D00A49094B1A69FB79134346
:100D84000B6106E00649064B1A69FB79DB43134005
:100D94000B6100BF0C37BD465DF8047B704700BF94
:100DA40000ED00E080B483B000AF78607B68042B72
:100DB40006D1094A084B1B6843F00403136005E09D
:100DC400054A054B1B6823F00403136000BF0C376E
:100DD400BD465DF8047B704710E000E080B400AFCE
:100DE400034B1B681B0C1846BD465DF8047B70471B
:100DF400002004E080B400AF044B1B68C3F30B0372
:100E04001846BD465DF8047B704700BF002004E02F
:100E140080B483B000AF78600B46FB70FB78002B86
:100E240006D00A49094B5A687B6813434B6006E0B5
:100E34000649064B5A687B68DB4313404B6000BF8E
:100E44000C37BD465DF8047B704700BF002004E00A
:100E540080B483B000AF78600B46FB70FB78002B46
:100E640006D00A49094B9A687B6813438B6006E0F5
:100E74000649064B9A687B68DB4313408B6000BFCE
:100E84000C37BD465DF8047B704700BF002004E0CA
:100E940080B483B000AF78600B46FB70FB78002B06
:100EA40006D00A49094BDA687B681343CB6006E035
:100EB4000649064BDA687B68DB431340CB6000BF0E
:100EC4000C37BD465DF8047B704700BF002004E08A
:100ED40080B400AF094B00221A60084B00225A600C
:100EE400064B00229A60054B0022DA60034B044A49
:100EF4005A6100BFBD465DF8047B7047003C014069
:100F0400FFFF7F0080B485B000AF78600023FB60F2
:100F1400344BFB607B689B79002B4FD03149314BBC
:100F24001A687B681B68DB4313400B602D492D4B0B
:100F34005A687B681B68DB4313404B607B681B79F2
:100F44001A46FB681344FB60FB68FA6811687A6808
:100F540012680A431A602349224B9A687B681B680B
:100F6400DB4313408B601F491E4BDA687B681B68A8
:100F7400DB431340CB607B685B79102B0ED119499E
:100F8400184B9A687B681B6813438B601549154B93
:100F9400DA687B681B681343CB601DE0114BFB6070
:100FA4007B685B791A46FB681344FB60FB68FA684C
:100FB40011687A6812680A431A600DE07B681B792D
:100FC4001A46FB681344FB60FB68FA6811687A6888
:100FD4001268D2430A401A6000BF1437BD465DF858
:100FE400047B7047003C014080B483B000AF78605C
:100FF4007B6800221A607B6800221A717B680C22CD
:101004005A717B6800229A7100BF0C37BD465DF8A7
:10101400047B704780B483B000AF78600549054B0A
:101024001A697B6813430B6100BF0C37BD465DF83A
:10103400047B7047003C014080B485B000AF786009
:101044000023FB73084B5A697B681340002B02D0C2
:101054000123FB7301E00023FB73FB7B1846143769
:10106400BD465DF8047B7047003C014080B483B00A
:1010740000AF7860044A7B68536100BF0C37BD46FB
:101084005DF8047B704700BF003C014080B485B02C
:1010940000AF78600023FB73084B5A697B681340E8
:1010A400002B02D00123FB7301E00023FB73FB7BC5
:1010B40018461437BD465DF8047B7047003C014078
:1010C40080B483B000AF7860044A7B68536100BF8A
:1010D4000C37BD465DF8047B704700BF003C0140FF
:1010E40080B582B000AF78607B684B4A934208D1E8
:1010F4000121012000F0D4FE0021012000F0D0FEE7
:1011040086E07B68454A934208D10121022000F021
:10111400C7FE0021022000F0C3FE79E07B68404A4C
:10112400934208D10121042000F0BAFE00210420DA
:1011340000F0B6FE6CE07B683A4A934208D1012184
:10114400082000F0ADFE0021082000F0A9FE5FE0B9
:101154007B68354A934208D10121102000F0A0FE9B
:101164000021102000F09CFE52E07B682F4A93423D
:1011740008D10121202000F093FE0021202000F05E
:101184008FFE45E07B682A4A934208D10121402022
:1011940000F086FE0021402000F082FE38E07B68EB
:1011A400244A934208D10121802000F079FE0021D5
:1011B400802000F075FE2BE07B681F4A93420AD121
:1011C40001214FF4807000F06BFE00214FF4807019
:1011D40000F066FE1CE07B68184A93420AD10121A4
:1011E4004FF4007000F05CFE00214FF4007000F03A
:1011F40057FE0DE07B68124A934209D101214FF456
:10120400806000F04DFE00214FF4806000F048FE45
:1012140000BF0837BD4680BD000002400004024004
:1012240000080240000C024000100240001402407A
:1012340000180240001C024000200240002402402A
:101244000028024080B487B000AF78603960002382
:101254007B6100233B610023FB6000237B6176E01C
:1012640001227B6902FA03F33B613B681A683B691C
:101274001340FB60FA683B699A4265D17B681A683F
:101284007B695B00032101FA03F3DB431A407B68AB
:101294001A607B681A683B681B7919467B695B0096
:1012A40001FA03F31A437B681A603B681B79012B2C
:1012B40003D03B681B79022B2ED17B689A687B692B
:1012C4005B00032101FA03F3DB431A407B689A6055
:1012D4007B689A683B685B7919467B695B0001FA15
:1012E40003F31A437B689A607B685A687B699BB2F4
:1012F400194601238B40DB431A407B685A607B68A4
:101304005B683A68927911467A6992B201FA02F2FC
:1013140092B21A437B685A607B68DA687B699BB235
:101324005B00032101FA03F3DB431A407B68DA60B4
:101334007B68DA683B68DB7919467B695B0001FAF4
:1013440003F31A437B68DA607B6901337B617B6951
:101354000F2B85D900BF1C37BD465DF8047B704751
:1013640080B483B000AF78607B684FF6FF721A6078
:101374007B6800221A717B6800225A717B68002204
:101384009A717B680022DA7100BF0C37BD465DF8A4
:10139400047B704780B485B000AF78600B467B80D7
:1013A4004FF48033FB607A88FB681343FB60FA6870
:1013B4007B68DA617A887B68DA61FA687B68DA616B
:1013C4007B68DB69FB607B68DB69FB6000BF14370B
:1013D400BD465DF8047B704780B485B000AF78608B
:1013E4000B467B800023FB737B681A697B88134060
:1013F400002B02D00123FB7301E00023FB73FB7B72
:1014040018461437BD465DF8047B704780B483B03A
:1014140000AF78607B681B699BB218460C37BD46E9
:101424005DF8047B704780B485B000AF78600B46EC
:101434007B800023FB737B685A697B881340002BF5
:1014440002D00123FB7301E00023FB73FB7B1846EE
:101454001437BD465DF8047B704780B483B000AF99
:1014640078607B685B699BB218460C37BD465DF8B3
:10147400047B704780B483B000AF78600B467B80F8
:101484007B687A881A8300BF0C37BD465DF8047BFD
:10149400704780B483B000AF78600B467B807B6874
:1014A4007A885A8300BF0C37BD465DF8047B7047C9
:1014B40080B483B000AF78600B467B8013467B70AA
:1014C4007B78002B03D07B687A881A8302E07B68E0
:1014D4007A885A8300BF0C37BD465DF8047B704799
:1014E40080B483B000AF78600B467B807A887B68D9
:1014F4005A6100BF0C37BD465DF8047B704780B469
:1015040083B000AF78600B467B807B685A697B8828
:101514005A407B685A6100BF0C37BD465DF8047BB6
:10152400704780B485B000AF78600B467B8013466B
:101534007B700023FB600023BB607A787B8803F018
:1015440007039B0002FA03F3FB607B88DB089BB272
:1015540018467B88DB089BB21A467B68083253F82E
:1015640022207B8803F007039B000F2101FA03F379
:10157400DB4302EA03017B6800F1080243F822100E
:101584007B88DB089BB21A467B68083253F822201A
:10159400FB681343BB607B88DB089BB21A467B68FD
:1015A4000832B96843F8221000BF1437BD465DF80D
:1015B400047B704780B400AF164A164B1B6843F097
:1015C40001031360134B00229A60124A114B1B68EB
:1015D40023F0A85323F4102313600E4B0E4A5A60D1
:1015E4000C4B0E4AC3F884200A4B0D4AC3F88820DA
:1015F400084A084B1B6823F480231360054B002220
:10160400DA60044B0022C3F88C2000BFBD465DF8AD
:10161400047B704700380240103000240030002062
:101624000030002480B483B000AF0346FB71064B46
:1016340000221A70044AFB79137000BF0C37BD46B0
:101644005DF8047B704700BF0238024080B582B069
:1016540000AF00233B600023FB710023BB713120EA
:1016640000F0A2FD0346BB713B6801333B603B685D
:10167400B3F5A04F02D0BB79002BF0D0312000F09D
:1016840093FD0346002B02D00123FB7101E00023EC
:10169400FB71FB7918460837BD4680BD80B485B020
:1016A40000AF0346FB710023FB600A4B1B68FB6021
:1016B400FB6823F0F803FB60FB79DB00FA68134353
:1016C400FB60044AFB68136000BF1437BD465DF835
:1016D400047B70470038024080B483B000AF0346F7
:1016E400FB71044AFB79136000BF0C37BD465DF8FB
:1016F400047B70470000474280B483B000AF0346C8
:10170400FB710D4B00221A700B4B00221A70FB79EF
:10171400012B02D0042B04D007E0074B01221A70DE
:1017240003E0054B05221A7000BF00BF0C37BD460D
:101734005DF8047B704700BF7038024080B483B00A
:1017440000AF0346FB71044AFB79136000BF0C37FA
:10175400BD465DF8047B7047800E474280B485B077
:1017640000AFF860B9607A603B600B497B689A010E
:10177400BB681A433B685B08013B1B041A43FB68C4
:101784001A43BB691B0613434B6000BF1437BD46A5
:101794005DF8047B704700BF0038024080B483B01A
:1017A40000AF0346FB71044AFB79136000BF0C379A
:1017B400BD465DF8047B70476000474280B483B047
:1017C40000AF7860396007497B689A013B681B0762
:1017D4001343C1F8843000BF0C37BD465DF8047B69
:1017E400704700BF0038024080B483B000AF0346A6
:1017F400FB71044AFB79136000BF0C37BD465DF8EA
:10180400047B70476800474280B485B000AFF8603D
:10181400B9607A600849FB689A01BB681B061A43E1
:101824007B681B071343C1F8883000BF1437BD46DB
:101834005DF8047B704700BF0038024080B483B079
:1018440000AF0346FB71044AFB79136000BF0C37F9
:10185400BD465DF8047B70477000474280B483B096
:1018640000AF0346FB71044AFB79136000BF0C37D9
:10187400BD465DF8047B70474C00474280B485B098
:1018840000AF786039600023FB600B4B9B68FB6002
:10189400FB6823F0EC63FB607A683B681343FA68E7
:1018A4001343FB60044AFB68936000BF1437BD46D2
:1018B4005DF8047B704700BF0038024080B485B0F7
:1018C40000AF786039600023FB600B4B9B68FB60C2
:1018D400FB6823F07843FB607A683B681343FA683B
:1018E4001343FB60044AFB68936000BF1437BD4692
:1018F4005DF8047B704700BF0038024080B485B0B7
:1019040000AF78600023FB60094B9B68FB60FB68B9
:1019140023F00303FB60FA687B681343FB60044A0B
:10192400FB68936000BF1437BD465DF8047B7047C5
:101934000038024080B400AF054B9B68DBB203F073
:101944000C03DBB21846BD465DF8047B704700BF4C
:101954000038024080B485B000AF78600023FB609B
:10196400094B9B68FB60FB6823F0F003FB60FA689B
:101974007B681343FB60044AFB68936000BF143721
:10198400BD465DF8047B70470038024080B485B0E2
:1019940000AF78600023FB60094B9B68FB60FB6829
:1019A40023F4E053FB60FA687B681343FB60044A4A
:1019B400FB68936000BF1437BD465DF8047B704735
:1019C4000038024080B485B000AF78600023FB602B
:1019D4000A4B9B68FB60FB6823F46043FB607B68F5
:1019E400DB00FA681343FB60044AFB68936000BFA2
:1019F4001437BD465DF8047B704700BF00380240D1
:101A040080B489B000AF78600023BB6100237B61A0
:101A14000023FB6102233B610023FB600223BB60C4
:101A2400474B9B6803F00C03BB61BB69042B07D0D5
:101A3400082B09D0002B3DD17B68424A1A603DE057
:101A44007B68414A1A6039E03D4B5B689B0D03F0AB
:101A54000103FB603A4B5B6803F03F03BB60FB6828
:101A6400002B0CD0384ABB68B2FBF3F3344A5268FB
:101A74009209C2F3080202FB03F3FB610BE0314A53
:101A8400BB68B2FBF3F32E4A52689209C2F3080210
:101A940002FB03F3FB612A4B5B681B0C03F003039B
:101AA40001335B003B61FA693B69B2FBF3F27B688B
:101AB4001A6003E07B68234A1A6000BF204B9B68CE
:101AC40003F0F003BB61BB691B09BB611F4ABB691F
:101AD40013441B78DBB27B617B681A687B69DA404C
:101AE4007B685A60164B9B6803F4E053BB61BB6987
:101AF4009B0ABB61154ABB6913441B78DBB27B614B
:101B04007B685A687B69DA407B689A600C4B9B68F7
:101B140003F46043BB61BB695B0BBB610B4ABB69EC
:101B240013441B78DBB27B617B685A687B69DA40BB
:101B34007B68DA6000BF2437BD465DF8047B7047DC
:101B4400003802400024F40000127A00480000200B
:101B540080B485B000AF78600023FB607B6803F439
:101B64004073B3F5407F11D10F4B9B68FB60FB685A
:101B740023F4F813FB607B6823F0704323F4407371
:101B8400FA681343FB60084AFB6893600649064BF6
:101B94001A6F7B68C3F30B0313430B6700BF14373F
:101BA400BD465DF8047B70470038024080B483B0C2
:101BB40000AF0346FB71044AFB79136000BF0C3786
:101BC400BD465DF8047B70473C0E474280B483B049
:101BD40000AF0346FB71044AFB79136000BF0C3766
:101BE400BD465DF8047B7047400E474280B483B025
:101BF40000AF7860044A7B68136000BF0C37BD46B1
:101C04005DF8047B704700BF5C01474280B485B037
:101C140000AF78600023FB600A4BD3F88C30FB6084
:101C2400FB6823F44013FB60FA687B681343FB6092
:101C3400044AFB68C2F88C3000BF1437BD465DF817
:101C4400047B70470038024080B485B000AF7860F0
:101C54000023FB600A4BD3F88C30FB60FB6823F451
:101C64004003FB60FA687B681343FB60044AFB682B
:101C7400C2F88C3000BF1437BD465DF8047B704752
:101C84000038024080B485B000AF78600023FB6068
:101C94000B4BD3F88C30FB60FB6823F01F03FB6015
:101CA4007B68013BFA681343FB60054AFB68C2F892
:101CB4008C3000BF1437BD465DF8047B704700BF0D
:101CC4000038024080B485B000AF78600023FB6028
:101CD4000B4BD3F88C30FB60FB6823F4F853FB60A8
:101CE4007B68013B1B02FA681343FB60044AFB68F0
:101CF400C2F88C3000BF1437BD465DF8047B7047D2
:101D04000038024080B485B000AF78600023FB60E7
:101D14000A4BD3F88C30FB60FB6823F44033FB6040
:101D2400FA687B681343FB60044AFB68C2F88C3092
:101D340000BF1437BD465DF8047B7047003802408D
:101D440080B483B000AF7860044A7B68136000BF3E
:101D54000C37BD465DF8047B704700BFE011474275
:101D640080B483B000AF78600B46FB70FB78002B27
:101D740006D00A49094B1A6B7B6813430B6306E0D0
:101D84000649064B1A6B7B68DB4313400B6300BFA9
:101D94000C37BD465DF8047B704700BF0038024035
:101DA40080B483B000AF78600B46FB70FB78002BE7
:101DB40006D00A49094B5A6B7B6813434B6306E010
:101DC4000649064B5A6B7B68DB4313404B6300BFE9
:101DD4000C37BD465DF8047B704700BF00380240F5
:101DE40080B483B000AF78600B46FB70FB78002BA7
:101DF40006D00A49094B9A6B7B6813438B6306E050
:101E04000649064B9A6B7B68DB4313408B6300BF28
:101E14000C37BD465DF8047B704700BF00380240B4
:101E240080B483B000AF78600B46FB70FB78002B66
:101E340006D00A49094B1A6C7B6813430B6406E00D
:101E44000649064B1A6C7B68DB4313400B6400BFE6
:101E54000C37BD465DF8047B704700BF0038024074
:101E640080B483B000AF78600B46FB70FB78002B26
:101E740006D00A49094B5A6C7B6813434B6406E04D
:101E84000649064B5A6C7B68DB4313404B6400BF26
:101E94000C37BD465DF8047B704700BF0038024034
:101EA40080B483B000AF78600B46FB70FB78002BE6
:101EB40006D00A49094B1A697B6813430B6106E093
:101EC4000649064B1A697B68DB4313400B6100BF6C
:101ED4000C37BD465DF8047B704700BF00380240F4
:101EE40080B483B000AF78600B46FB70FB78002BA6
:101EF40006D00A49094B5A697B6813434B6106E0D3
:101F04000649064B5A697B68DB4313404B6100BFAB
:101F14000C37BD465DF8047B704700BF00380240B3
:101F240080B483B000AF78600B46FB70FB78002B65
:101F340006D00A49094B9A697B6813438B6106E012
:101F44000649064B9A697B68DB4313408B6100BFEB
:101F54000C37BD465DF8047B704700BF0038024073
:101F640080B483B000AF78600B46FB70FB78002B25
:101F740006D00A49094B1A6A7B6813430B6206E0D0
:101F84000649064B1A6A7B68DB4313400B6200BFA9
:101F94000C37BD465DF8047B704700BF0038024033
:101FA40080B483B000AF78600B46FB70FB78002BE5
:101FB40006D00A49094B5A6A7B6813434B6206E010
:101FC4000649064B5A6A7B68DB4313404B6200BFE9
:101FD4000C37BD465DF8047B704700BF00380240F3
:101FE40080B483B000AF78600B46FB70FB78002BA5
:101FF40006D00A49094B1A6D7B6813430B6506E04A
:102004000649064B1A6D7B68DB4313400B6500BF22
:102014000C37BD465DF8047B704700BF00380240B2
:1020240080B483B000AF78600B46FB70FB78002B64
:1020340006D00A49094B5A6D7B6813434B6506E089
:102044000649064B5A6D7B68DB4313404B6500BF62
:102054000C37BD465DF8047B704700BF0038024072
:1020640080B483B000AF78600B46FB70FB78002B24
:1020740006D00A49094B9A6D7B6813438B6506E0C9
:102084000649064B9A6D7B68DB4313408B6500BFA2
:102094000C37BD465DF8047B704700BF0038024032
:1020A40080B483B000AF78600B46FB70FB78002BE4
:1020B40006D00A49094B1A6E7B6813430B6606E087
:1020C4000649064B1A6E7B68DB4313400B6600BF60
:1020D4000C37BD465DF8047B704700BF00380240F2
:1020E40080B483B000AF78600B46FB70FB78002BA4
:1020F40006D00A49094B5A6E7B6813434B6606E0C7
:102104000649064B5A6E7B68DB4313404B6600BF9F
:102114000C37BD465DF8047B704700BF00380240B1
:1021240080B483B000AF0346FB71FB79012B06D169
:10213400094A094B1B6F43F00803136705E0064A7D
:10214400054B1B6F23F00803136700BF0C37BD4614
:102154005DF8047B704700BF0038024080B483B050
:1021640000AF03460A46FB711346BB71BB79002BD3
:1021740008D00C490B4B1B78DAB2FB791343DBB262
:102184000B7009E00749074B1B78DAB2FB79DB4394
:10219400DBB21340DBB20B7000BF0C37BD465DF8F9
:1021A400047B70470D38024080B487B000AF03460B
:1021B400FB710023FB6000237B610023FB74FB792C
:1021C4005B09DBB2FB60FB68012B03D1124B1B687C
:1021D4007B6109E0FB68022B03D10F4B1B6F7B6112
:1021E40002E00D4B5B6F7B61FB7903F01F03FB6027
:1021F4007A69FB6822FA03F303F00103002B02D08F
:102204000123FB7401E00023FB74FB7C18461C379C
:10221400BD465DF8047B70470038024080B400AFCF
:10222400054A054B5B6F43F08073536700BFBD469F
:102234005DF8047B704700BF0038024080B485B06D
:1022440000AF0346FB710023FB73094BDA68FB798B
:102254001340002B02D00123FB7301E00023FB7326
:10226400FB7B18461437BD465DF8047B704700BFFE
:102274000038024080B483B000AF0346FB71044AC7
:10228400FB79137000BF0C37BD465DF8047B7047C3
:102294000E38024080B500AF01214FF48040FFF7B3
:1022A4007FFE00214FF48040FFF77AFE00BF80BD1F
:1022B40080B483B000AF0346FB71044AFB7913601A
:1022C40000BF0C37BD465DF8047B70470038014001
:1022D40080B483B000AF0346FB71044AFB791360FA
:1022E40000BF0C37BD465DF8047B704720002742D1
:1022F40090B484B000AF03460A46FB711346BB7129
:102304000023FB60BB7903F003039B000F2202FA56
:1023140003F3FB601649BB799B08DBB21846144AE9
:10232400BB799B08DBB2023352F82320FB68DB4302
:102334001A40831C41F823200D48BB799B08DBB26B
:102344001C460B4ABB799B08DBB2023352F82320AC
:10235400F979BB7903F003039B0001FA03F31A43F1
:10236400A31C40F8232000BF1037BD4690BC704723
:102374000038014080B483B000AF7860044A7B68C1
:10238400136000BF0C37BD465DF8047B704700BF87
:10239400DC00274280B483B000AF0346FB71044ADB
:1023A400FB79136000BF0C37BD465DF8047B7047B2
:1023B4000004274280B483B000AF0023FB71094BB3
:1023C4001B6A03F48073002B02D00123FB7101E02C
:1023D4000023FB71FB7918460C37BD465DF8047B7E
:1023E400704700BF0038014080B582B000AF78600C
:1023F4007B68604A934208D101210120FFF7D0FD98
:1024040000210120FFF7CCFDAFE07B68B3F1804FE2
:1024140008D101210120FFF7A3FD00210120FFF7CE
:102424009FFDA2E07B68544A934208D10121022017
:10243400FFF796FD00210220FFF792FD95E07B68EF
:102444004E4A934208D101210420FFF789FD00215F
:102454000420FFF785FD88E07B68494A934208D150
:1024640001210820FFF77CFD00210820FFF778FDFB
:102474007BE07B68434A934208D101211020FFF797
:102484006FFD00211020FFF76BFD6EE07B683E4A74
:10249400934208D101212020FFF762FD0021202072
:1024A400FFF75EFD61E07B68384A934208D1012161
:1024B4000220FFF775FD00210220FFF771FD54E0B3
:1024C4007B68334A93420AD101214FF48030FFF7ED
:1024D40067FD00214FF48030FFF762FD45E07B6823
:1024E4002C4A93420AD101214FF40030FFF758FDE2
:1024F40000214FF40030FFF753FD36E07B68264A95
:1025040093420AD101214FF48020FFF749FD0021B5
:102514004FF48020FFF744FD27E07B681F4A934275
:1025240008D101214020FFF71BFD00214020FFF7C7
:1025340017FD1AE07B681A4A934208D101218020D2
:10254400FFF70EFD00218020FFF70AFD0DE07B68F8
:10255400144A934209D101214FF48070FFF700FD22
:1025640000214FF48070FFF7FBFC00BF0837BD4625
:1025740080BD00BF0000014000040040000800408E
:10258400000C004000100040001400400004014012
:102594000040014000440140004801400018004050
:1025A400001C00400020004080B485B000AF78607B
:1025B40039600023FB817B681B88FB817B68294A87
:1025C400934213D07B68284A93420FD07B68B3F1BF
:1025D400804F0BD07B68254A934207D07B68244AFE
:1025E400934203D07B68234A934208D1FB8923F0AA
:1025F4007003FB813B685A88FB891343FB817B682A
:102604001D4A93420CD07B681C4A934208D0FB8934
:1026140023F44073FB813B681A89FB891343FB81D4
:102624007B68FA891A803B685A687B68DA623B687F
:102634001A887B681A857B680A4A934203D07B68B0
:10264400094A934204D13B689B7A9AB27B681A8602
:102654007B6801229A8200BF1437BD465DF8047B73
:10266400704700BF00000140000401400004004026
:1026740000080040000C004000100040001400401E
:1026840080B483B000AF78607B684FF0FF325A604B
:102694007B6800221A807B6800221A817B680022F2
:1026A4005A807B6800229A7200BF0C37BD465DF8E1
:1026B400047B704780B483B000AF78600B467B80A6
:1026C40013463B807B687A881A857B683A889A82AD
:1026D40000BF0C37BD465DF8047B704780B485B0FD
:1026E40000AF78600B467B800023FB817B681B88EE
:1026F400FB81FB8923F07003FB81FA897B881343F8
:10270400FB817B68FA891A8000BF1437BD465DF8E7
:10271400047B704780B483B000AF786039607B6815
:102724003A685A6200BF0C37BD465DF8047B7047B7
:1027340080B483B000AF786039607B683A68DA624D
:1027440000BF0C37BD465DF8047B704780B483B08E
:1027540000AF78607B685B6A18460C37BD465DF84D
:10276400047B704780B483B000AF78607B681B8DB6
:102774009BB218460C37BD465DF8047B704780B4A5
:1027840083B000AF78600B46FB70FB78002B08D059
:102794007B681B889BB243F002039AB27B681A8061
:1027A40007E07B681B889BB223F002039AB27B6824
:1027B4001A8000BF0C37BD465DF8047B704780B4B7
:1027C40083B000AF78600B467B807B88002B08D0F9
:1027D4007B681B889BB243F004039AB27B681A801F
:1027E40007E07B681B889BB223F004039AB27B68E2
:1027F4001A8000BF0C37BD465DF8047B704780B477
:1028040083B000AF78600B46FB70FB78002B08D0D8
:102814007B681B889BB243F080039AB27B681A8062
:1028240007E07B681B889BB223F080039AB27B6825
:102834001A8000BF0C37BD465DF8047B704780B436
:1028440083B000AF78600B467B807B681B889BB2AB
:1028540023F008039AB27B681A807B681B889AB2BB
:102864007B8813439AB27B681A8000BF0C37BD463D
:102874005DF8047B704780B483B000AF78600B468A
:102884007B807B681B889BB223F440739AB27B687D
:102894001A807B681B889AB27B8813439AB27B6840
:1028A4001A8000BF0C37BD465DF8047B704780B4C6
:1028B40083B000AF78600B46FB70FB78002B08D028
:1028C4007B681B889BB243F001039AB27B681A8031
:1028D40007E07B681B889BB223F001039AB27B68F4
:1028E4001A8000BF0C37BD465DF8047B704780B486
:1028F40085B000AF7860396000237B810023FB81C1
:102904000023BB817B681B8C9BB223F001039AB22A
:102914007B681A847B681B8CFB817B689B88BB81EA
:102924007B681B8B7B817B8923F070037B817B8994
:1029340023F003037B813B681A887B8913437B81E3
:10294400FB8923F00203FB813B689A89FB891343CB
:10295400FB813B685A88FB891343FB817B681F4AD0
:10296400934203D07B681E4A934223D1FB8923F010
:102974000803FB813B68DA89FB891343FB81FB89EC
:1029840023F00403FB813B689A88FB891343FB8192
:10299400BB8923F48073BB81BB8923F40073BB819F
:1029A4003B681A8ABB891343BB813B685A8ABB893B
:1029B4001343BB817B68BA899A807B687A891A83BE
:1029C4003B689A687B685A637B68FA891A8400BFFB
:1029D4001437BD465DF8047B704700BF000001401A
:1029E4000004014080B485B000AF786039600023F2
:1029F4007B810023FB810023BB817B681B8C9BB202
:102A040023F010039AB27B681A847B681B8CFB81C9
:102A14007B689B88BB817B681B8B7B817B8923F4D0
:102A2400E0437B817B8923F440737B813B681B8873
:102A34001B029AB27B8913437B81FB8923F0200319
:102A4400FB813B689B891B019AB2FB891343FB8181
:102A54003B685B881B019AB2FB891343FB817B684B
:102A6400224A934203D07B68214A93422BD1FB89AB
:102A740023F08003FB813B68DB891B019AB2FB894D
:102A84001343FB81FB8923F04003FB813B689B8854
:102A94001B019AB2FB891343FB81BB8923F4806336
:102AA400BB81BB8923F40063BB813B681B8A9B0009
:102AB4009AB2BB891343BB813B685B8A9B009AB281
:102AC400BB891343BB817B68BA899A807B687A8906
:102AD4001A833B689A687B689A637B68FA891A84CC
:102AE40000BF1437BD465DF8047B70470000014009
:102AF4000004014080B485B000AF786039600023E1
:102B04007B810023FB810023BB817B681B8C9BB2F0
:102B140023F480739AB27B681A847B681B8CFB81D4
:102B24007B689B88BB817B689B8B7B817B8923F043
:102B340070037B817B8923F003037B813B681A88C4
:102B44007B8913437B81FB8923F40073FB813B68FE
:102B54009B891B029AB2FB891343FB813B685B8808
:102B64001B029AB2FB891343FB817B68224A93427E
:102B740003D07B68214A93422BD1FB8923F4006361
:102B8400FB813B68DB891B029AB2FB891343FB81FF
:102B9400FB8923F48063FB813B689B881B029AB208
:102BA400FB891343FB81BB8923F48053BB81BB891D
:102BB40023F40053BB813B681B8A1B019AB2BB8977
:102BC4001343BB813B685B8A1B019AB2BB891343E5
:102BD400BB817B68BA899A807B687A899A833B68CF
:102BE4009A687B68DA637B68FA891A8400BF1437B1
:102BF400BD465DF8047B70470000014000040140BD
:102C040080B485B000AF786039600023BB810023B5
:102C14007B810023FB817B681B8C9BB223F4805354
:102C24009AB27B681A847B681B8C7B817B689B8847
:102C3400FB817B689B8BBB81BB8923F4E043BB8115
:102C4400BB8923F44073BB813B681B881B029AB287
:102C5400BB891343BB817B8923F400537B813B688D
:102C64009B891B039AB27B8913437B813B685B88F6
:102C74001B039AB27B8913437B817B68124A93427C
:102C840003D07B68114A93420AD1FB8923F4804321
:102C9400FB813B681B8A9B019AB2FB891343FB812E
:102CA4007B68FA899A807B68BA899A833B689A68B8
:102CB4007B681A647B687A891A8400BF1437BD461E
:102CC4005DF8047B704700BF000001400004014030
:102CD40080B483B000AF78607B6800221A807B6880
:102CE40000225A807B6800229A807B6800229A60C6
:102CF4007B6800229A817B680022DA817B6800224B
:102D04001A827B6800225A8200BF0C37BD465DF8E8
:102D1400047B704780B485B000AF78600B467B803D
:102D240013463B800023FB6000237B817B68FB60B0
:102D3400FB681833FB607B88012202FA03F37B8172
:102D44007B681B8C9AB27B89DB439BB213409AB29B
:102D54007B681A847B88002B02D07B88082B14D1D3
:102D64007B885B089BB21A46FB681344FB60FA68D5
:102D7400FB6819684FF68F730B401360FB68FA68A1
:102D840011683A880A431A6017E07B88043B9BB2B7
:102D94005B089BB21A46FB681344FB60FA68FB6845
:102DA400196848F6FF730B401360FB68FA681268F1
:102DB4003988090289B20A431A6000BF1437BD4634
:102DC4005DF8047B704780B483B000AF78603960ED
:102DD4007B683A685A6300BF0C37BD465DF8047BD4
:102DE400704780B483B000AF786039607B683A681C
:102DF4009A6300BF0C37BD465DF8047B704780B40E
:102E040083B000AF786039607B683A68DA6300BFEA
:102E14000C37BD465DF8047B704780B483B000AFC7
:102E2400786039607B683A681A6400BF0C37BD4625
:102E34005DF8047B704780B485B000AF78600B46C2
:102E44007B800023FB817B681B8BFB81FB8923F048
:102E54007003FB81FA897B881343FB817B68FA89C1
:102E64001A8300BF1437BD465DF8047B704780B4F5
:102E740085B000AF78600B467B800023FB817B68C4
:102E84001B8BFB81FB8923F4E043FB817B881B02C2
:102E94009AB2FB891343FB817B68FA891A8300BFCA
:102EA4001437BD465DF8047B704780B485B000AF2D
:102EB40078600B467B800023FB817B689B8BFB81C6
:102EC400FB8923F07003FB81FA897B881343FB8120
:102ED4007B68FA899A8300BF1437BD465DF8047B8A
:102EE400704780B485B000AF78600B467B800023C8
:102EF400FB817B689B8BFB81FB8923F4E043FB8193
:102F04007B881B029AB2FB891343FB817B68FA8995
:102F14009A8300BF1437BD465DF8047B704780B4C4
:102F240085B000AF78600B467B800023FB817B6813
:102F34001B8BFB81FB8923F00803FB81FA897B88C7
:102F44001343FB817B68FA891A8300BF1437BD469B
:102F54005DF8047B704780B485B000AF78600B46A1
:102F64007B800023FB817B681B8BFB81FB8923F423
:102F74000063FB817B881B029AB2FB891343FB81AC
:102F84007B68FA891A8300BF1437BD465DF8047B59
:102F9400704780B485B000AF78600B467B80002317
:102FA400FB817B689B8BFB81FB8923F00803FB81FE
:102FB400FA897B881343FB817B68FA899A8300BF73
:102FC4001437BD465DF8047B704780B485B000AF0C
:102FD40078600B467B800023FB817B689B8BFB81A5
:102FE400FB8923F40063FB817B881B029AB2FB8973
:102FF4001343FB817B68FA899A8300BF1437BD466B
:103004005DF8047B704780B485B000AF78600B46F0
:103014007B800023FB817B681B8BFB81FB8923F076
:103024000403FB81FA897B881343FB817B68FA895B
:103034001A8300BF1437BD465DF8047B704780B423
:1030440085B000AF78600B467B800023FB817B68F2
:103054001B8BFB81FB8923F48063FB817B881B0230
:103064009AB2FB891343FB817B68FA891A8300BFF8
:103074001437BD465DF8047B704780B485B000AF5B
:1030840078600B467B800023FB817B689B8BFB81F4
:10309400FB8923F00403FB81FA897B881343FB81BA
:1030A4007B68FA899A8300BF1437BD465DF8047BB8
:1030B400704780B485B000AF78600B467B800023F6
:1030C400FB817B689B8BFB81FB8923F48063FB8101
:1030D4007B881B029AB2FB891343FB817B68FA89C4
:1030E4009A8300BF1437BD465DF8047B704780B4F3
:1030F40085B000AF78600B467B800023FB817B6842
:103104001B8BFB81FB8923F08003FB81FA897B887D
:103114001343FB817B68FA891A8300BF1437BD46C9
:103124005DF8047B704780B485B000AF78600B46CF
:103134007B800023FB817B681B8BFB81FB89C3F3B2
:103144000E03FB817B881B029AB2FB891343FB812C
:103154007B68FA891A8300BF1437BD465DF8047B87
:10316400704780B485B000AF78600B467B80002345
:10317400FB817B689B8BFB81FB8923F08003FB81B4
:10318400FA897B881343FB817B68FA899A8300BFA1
:103194001437BD465DF8047B704780B485B000AF3A
:1031A40078600B467B800023FB817B689B8BFB81D3
:1031B400FB89C3F30E03FB817B881B029AB2FB8954
:1031C4001343FB817B68FA899A8300BF1437BD4699
:1031D4005DF8047B704780B485B000AF78600B461F
:1031E4007B800023FB817B681B8CFB81FB8923F0A4
:1031F4000203FB81FA897B881343FB817B68FA898C
:103204001A8400BF1437BD465DF8047B704780B450
:1032140085B000AF78600B467B800023FB817B6820
:103224001B8CFB81FB8923F00803FB81FA897B88D3
:103234001343FB817B68FA891A8400BF1437BD46A7
:103244005DF8047B704780B485B000AF78600B46AE
:103254007B800023FB817B681B8CFB81FB8923F033
:103264002003FB817B881B019AB2FB891343FB81FA
:103274007B68FA891A8400BF1437BD465DF8047B65
:10328400704780B485B000AF78600B467B80002324
:10329400FB817B681B8CFB81FB8923F08003FB8112
:1032A4007B881B019AB2FB891343FB817B68FA89F3
:1032B4001A8400BF1437BD465DF8047B704780B4A0
:1032C40085B000AF78600B467B800023FB817B6870
:1032D4001B8CFB81FB8923F40073FB817B881B021D
:1032E4009AB2FB891343FB817B68FA891A8400BF75
:1032F4001437BD465DF8047B704780B485B000AFD9
:1033040078600B467B800023FB817B681B8CFB81F0
:10331400FB8923F40063FB817B881B029AB2FB893F
:103324001343FB817B68FA891A8400BF1437BD46B6
:103334005DF8047B704780B485B000AF78600B46BD
:103344007B800023FB817B681B8CFB81FB8923F43E
:103354000053FB817B881B039AB2FB891343FB81D7
:103364007B68FA891A8400BF1437BD465DF8047B74
:10337400704780B485B000AF78600B467B801346FD
:103384003B800023FB817B88012202FA03F3FB814B
:103394007B681B8C9AB2FB89DB439BB213409AB2C5
:1033A4007B681A847B681B8C9AB239887B8801FA03
:1033B40003F39BB213439AB27B681A8400BF143799
:1033C400BD465DF8047B704780B485B000AF78607B
:1033D4000B467B8013463B800023FB817B880422C1
:1033E40002FA03F3FB817B681B8C9AB2FB89DB43F3
:1033F4009BB213409AB27B681A847B681B8C9AB286
:1034040039887B8801FA03F39BB213439AB27B6831
:103414001A8400BF1437BD465DF8047B704780B53D
:1034240082B000AF786039603B681B88002B0FD1F5
:103434003B6859883B689A883B681B89786800F028
:10344400B7FC3B68DB881946786800F0E1F836E0A1
:103454003B681B88042B0FD13B6859883B689A88CA
:103464003B681B89786800F0E6FC3B68DB881946FA
:10347400786800F0E9F822E03B681B88082B0FD13C
:103484003B6859883B689A883B681B89786800F0D8
:103494001FFD3B68DB881946786800F0F3F80EE0FE
:1034A4003B6859883B689A883B681B89786800F0B8
:1034B40057FD3B68DB881946786800F0FFF800BFC9
:1034C4000837BD4680BD80B483B000AF78607B68A8
:1034D40000221A807B6800225A807B6801229A802D
:1034E4007B680022DA807B6800221A8100BF0C37D7
:1034F400BD465DF8047B704780B584B000AF78604A
:1035040039600023FB810123BB813B685B88002B6E
:1035140002D10223FB8101E00023FB813B689B88ED
:10352400012B02D10223BB8101E00123BB813B6853
:103534001B88002B1CD13B6859883B689A883B68E0
:103544001B89786800F034FC3B68DB88194678688E
:1035540000F05EF83B681B89BA89F989786800F045
:103564006AFC3B68DB881946786800F06DF81BE05C
:103574003B6859883B689A883B681B89786800F0E7
:103584005AFC3B68DB881946786800F05DF83B68B4
:103594001B89BA89F989786800F00AFC3B68DB88E2
:1035A4001946786800F034F800BF1037BD4680BD76
:1035B40080B483B000AF78607B685B6B18460C37CF
:1035C400BD465DF8047B704780B483B000AF78607B
:1035D4007B689B6B18460C37BD465DF8047B7047CF
:1035E40080B483B000AF78607B68DB6B18460C371F
:1035F400BD465DF8047B704780B483B000AF78604B
:103604007B681B6C18460C37BD465DF8047B70471D
:1036140080B483B000AF78600B467B807B681B8BE3
:103624009BB223F00C039AB27B681A837B681B8BD2
:103634009AB27B8813439AB27B681A8300BF0C3713
:10364400BD465DF8047B704780B483B000AF7860FA
:103654000B467B807B681B8B9BB223F440639AB23E
:103664007B681A837B681B8B9AB27B881B029BB294
:1036740013439AB27B681A8300BF0C37BD465DF8CA
:10368400047B704780B483B000AF78600B467B80C6
:103694007B689B8B9BB223F00C039AB27B689A8362
:1036A4007B689B8B9AB27B8813439AB27B689A831C
:1036B40000BF0C37BD465DF8047B704780B483B00F
:1036C40000AF78600B467B807B689B8B9BB223F4B6
:1036D40040639AB27B689A837B689B8B9AB27B889F
:1036E4001B029BB213439AB27B689A8300BF0C37C8
:1036F400BD465DF8047B704780B483B000AF78604A
:1037040039603B681A883B685B8813439AB23B680C
:103714009B8813439AB23B68DB8813439AB23B6895
:103724001B8913439AB23B685B8913439AB23B6883
:103734009B8913439AB27B68A3F8442000BF0C37DB
:10374400BD465DF8047B704780B483B000AF7860F9
:103754007B6800221A807B6800225A807B680022E2
:103764009A807B680022DA807B6800221A817B6859
:1037740000225A817B6800229A8100BF0C37BD4623
:103784005DF8047B704780B483B000AF78600B466B
:10379400FB70FB78002B0CD07B68B3F844309BB2F1
:1037A4006FEA43436FEA53439AB27B68A3F8442019
:1037B40009E07B68B3F844309BB2C3F30E039AB2BA
:1037C4007B68A3F8442000BF0C37BD465DF8047B3A
:1037D400704780B483B000AF78600B46FB70FB7811
:1037E400002B08D07B689B889BB243F004039AB2F9
:1037F4007B689A8007E07B689B889BB223F0040374
:103804009AB27B689A8000BF0C37BD465DF8047B92
:10381400704780B483B000AF78600B46FB70FB78D0
:10382400002B08D07B689B889BB243F001039AB2BB
:103834007B689A8007E07B689B889BB223F0010336
:103844009AB27B689A8000BF0C37BD465DF8047B52
:10385400704780B483B000AF78600B467B8013461A
:103864007B707B78002B08D07B689B899AB27B881D
:1038740013439AB27B689A8109E07B689B899AB268
:103884007B88DB439BB213409AB27B689A8100BF6A
:103894000C37BD465DF8047B704780B483B000AF3D
:1038A40078600B467B807B687A889A8200BF0C37ED
:1038B400BD465DF8047B704780B485B000AF786086
:1038C4000B467B800023FB737B681B8A9AB27B8840
:1038D40013409BB2002B02D00123FB7301E00023B1
:1038E400FB73FB7B18461437BD465DF8047B7047B9
:1038F40080B483B000AF78600B467B807B88DB4369
:103904009AB27B681A8200BF0C37BD465DF8047B0F
:10391400704780B485B000AF78600B467B8000238D
:10392400FB730023BB8100237B817B681B8A9AB2D3
:103934007B881340BB817B689B899AB27B88134048
:103944007B81BB89002B05D07B89002B02D001230E
:10395400FB7301E00023FB73FB7B18461437BD4661
:103964005DF8047B704780B483B000AF78600B4689
:103974007B807B88DB439AB27B681A8200BF0C375A
:10398400BD465DF8047B704780B483B000AF7860B7
:103994000B467B8013463B807A883B8813439AB25C
:1039A4007B68A3F8482000BF0C37BD465DF8047B54
:1039B400704780B483B000AF78600B467B801346B9
:1039C4007B707B78002B08D07B689B899AB27B88BC
:1039D40013439AB27B689A8109E07B689B899AB207
:1039E4007B88DB439BB213409AB27B689A8100BF09
:1039F4000C37BD465DF8047B704780B483B000AFDC
:103A040078600B46FB70FB78002B08D07B689B88A2
:103A14009BB243F008039AB27B689A8007E07B6804
:103A24009B889BB223F008039AB27B689A8000BFFC
:103A34000C37BD465DF8047B704780B483B000AF9B
:103A440078607B681B899BB223F007039AB27B687A
:103A54001A8100BF0C37BD465DF8047B704780B502
:103A640082B000AF78600B467B807B88194678680B
:103A740000F088F87B681B899BB243F007039AB275
:103A84007B681A8100BF0837BD4680BD80B584B00D
:103A940000AFF860084611461A4603467B810B4680
:103AA4003B811346FB807B89602B06D1FB883989D7
:103AB4000122F86800F0BFF905E0FB88398901228A
:103AC400F86800F075F97B891946F86800F05AF82F
:103AD400FB681B899BB243F007039AB2FB681A8107
:103AE40000BF1037BD4680BD80B586B000AFF8601A
:103AF400084611461A4603467B810B463B81134612
:103B0400FB800023FB82FB883A897989F86800F0FE
:103B1400A9F8FB681B89FB82FB8A23F00703FB825D
:103B2400FB8A43F00703FB82FB8A23F07003FB82CA
:103B3400FB8A43F07003FB82FB68FA8A1A8100BF98
:103B44001837BD4680BD80B584B000AFF860084624
:103B540011461A4603467B810B463B811346FB8084
:103B6400FB883A897989F86800F07CF8FB681B893E
:103B74009BB243F480439AB2FB681A8100BF1037AA
:103B8400BD4680BD80B485B000AF78600B467B80B5
:103B94000023FB817B681B89FB81FB8923F0700375
:103BA400FB81FA897B881343FB817B68FA891A813C
:103BB40000BF1437BD465DF8047B704780B483B002
:103BC40000AF78600B467B807B689B889BB223F0B8
:103BD40070039AB27B689A807B689B889AB27B88D0
:103BE40013439AB27B689A8000BF0C37BD465DF8D8
:103BF400047B704780B483B000AF78600B467B8051
:103C04007B681B899BB223F007039AB27B681A81F5
:103C14007B681B899AB27B8813439AB27B681A81AA
:103C240000BF0C37BD465DF8047B704780B483B099
:103C340000AF78600B467B807B681B899BB223F0C6
:103C440080039AB27B681A817B681B899AB27B884D
:103C540013439AB27B681A8100BF0C37BD465DF8E6
:103C6400047B704780B487B000AFF8600846114603
:103C74001A4603467B810B463B811346FB80002397
:103C8400FB82FB681B89FB82FB8ADBB2FB82FB881D
:103C94001B029AB23B8913439AB27B8913439AB2AB
:103CA400FB8A1343FB82FB68FA8A1A8100BF1C3724
:103CB400BD465DF8047B704780B487B000AFF86000
:103CC400084611461A4603467B810B463B81134640
:103CD400FB800023FB820023BB8200237B82FB68E2
:103CE4001B89FB82FB681B8BBB82FB681B8C7B8262
:103CF400FB8A23F00703FB82FA8A7B891343FB8246
:103D0400BB8A23F4407323F00303BB82BB8A43F4CE
:103D1400807343F00103BB827B8A23F022037B82FE
:103D2400FB881B019AB23B8913439AB27B8A1343E3
:103D34007B82FB68FA8A1A81FB68BA8A1A83FB6859
:103D44007A8A1A8400BF1C37BD465DF8047B70472D
:103D540080B483B000AF78600B46FB70FB78002B17
:103D640008D07B689B889BB243F080039AB27B683F
:103D74009A8007E07B689B889BB223F080039AB209
:103D84007B689A8000BF0C37BD465DF8047B7047A2
:103D940080B483B000AF78600B467B807B687A8800
:103DA400A3F8502000BF0C37BD465DF8047B704774
:103DB40080B487B000AFF860084611461A4603463F
:103DC4007B810B463B811346FB800023FB8200234F
:103DD400BB82FB681B8C9BB223F001039AB2FB6885
:103DE4001A84FB681B8BFB82FB681B8CBB82FB8ADF
:103DF40023F0F303FB82FB881B019AB23B89134334
:103E04009AB2FB8A1343FB82BB8A23F00A03BB8268
:103E14007A89BB8A13439BB243F00103BB82FB68DC
:103E2400FA8A1A83FB68BA8A1A8400BF1C37BD4613
:103E34005DF8047B704780B487B000AFF860084633
:103E440011461A4603467B810B463B811346FB8091
:103E54000023FB820023BB8200237B82FB681B8C34
:103E64009BB223F010039AB2FB681A84FB681B8B85
:103E7400FB82FB681B8CBB827B891B017B82FB8AD8
:103E840023F440731B051B0DFB82FB881B039AB2B2
:103E9400FB8A1343FB823B891B029AB2FB8A1343BE
:103EA400FB82BB8A23F0A003BB827A8ABB8A1343BA
:103EB4009BB243F01003BB82FB68FA8A1A83FB6847
:103EC400BA8A1A8400BF1C37BD465DF8047B70476C
:103ED40080B487B000AFF860084611461A4603461E
:103EE4007B810B463B811346FB800023FB8200232E
:103EF400BB8200237B82FB681B8C9BB223F4807300
:103F04009AB2FB681A84FB689B8BFB82FB681B8C50
:103F1400BB827B891B027B82FB8A23F0F303FB8237
:103F2400FB881B019AB23B8913439AB2FB8A134361
:103F3400FB82BB8A23F42063BB827A8ABB8A134345
:103F44009BB243F48073BB82FB68FA8A9A83FB6852
:103F5400BA8A1A8400BF1C37BD465DF8047B7047DB
:103F640080B487B000AFF860084611461A4603468D
:103F74007B810B463B811346FB800023FB8200239D
:103F8400BB8200237B82FB681B8C9BB223F480538F
:103F94009AB2FB681A84FB689B8BFB82FB681B8CC0
:103FA400BB827B891B037B82FB8A23F440731B0542
:103FB4001B0DFB823B891B029AB2FB8A1343FB82D3
:103FC400FB881B039AB2FB8A1343FB82BB8A23F44C
:103FD40000535B045B0CBB827A8ABB8A13439BB29B
:103FE40043F48053BB82FB68FA8A9A83FB68BA8ADB
:103FF4001A8400BF1C37BD465DF8047B704700BFC0
:1040040080B582B000AF78607B683B4A934208D1A8
:1040140001211020FDF7C4FF00211020FDF7C0FF8F
:1040240065E07B68354A93420AD101214FF40030A0
:10403400FDF796FF00214FF40030FDF791FF56E0A5
:104044007B682F4A93420AD101214FF48020FDF767
:1040540087FF00214FF48020FDF782FF47E07B6853
:10406400284A93420AD101214FF40020FDF778FF3A
:1040740000214FF40020FDF773FF38E07B68224AEB
:1040840093420AD101214FF48010FDF769FF00210A
:104094004FF48010FDF764FF29E07B681B4A9342CC
:1040A40008D101212020FDF77BFF00212020FDF70E
:1040B40077FF1CE07B68164A93420AD101214FF036
:1040C4008040FDF74DFF00214FF08040FDF748FF91
:1040D4000DE07B680F4A934209D101214FF0004063
:1040E400FDF73EFF00214FF00040FDF739FF00BF10
:1040F4000837BD4680BD00BF0010014000440040A9
:1041040000480040004C00400050004000140140B2
:1041140000780040007C004080B58AB000AF786031
:10412400396000237B6200233B620023FB61002390
:10413400BB617B681B8A9BB27B627B6A23F440531E
:104144007B623B68DB881A467B6A13437B627B6A2B
:104154009AB27B681A827B689B899BB27B627B6A7A
:1041640023F4B05323F00C037B623B689A883B68CA
:104174001B8913439AB23B685B8913439BB21A466B
:104184007B6A13437B627B6A9AB27B689A817B6801
:104194009B8A9BB27B627B6A23F440737B623B689D
:1041A4009B891A467B6A13437B627B6A9AB27B685B
:1041B4009A8207F108031846FDF722FC7B68304A0F
:1041C400934203D07B682F4A934202D17B693B62BE
:1041D40001E03B693B627B689B899BB21BB2002B6D
:1041E4000CDA3A6A13469B0013449A001A443B685B
:1041F4001B685B00B2FBF3F3FB610BE03A6A134606
:104204009B0013449A001A443B681B689B00B2FB52
:10421400F3F3FB61FB691C4AA2FB03235B091B014B
:104224007B627B6A1B09642202FB03F3FA69D31ADB
:10423400BB617B689B899BB21BB2002B0CDABB6908
:10424400DB003233104AA2FB03235B0903F00703AC
:104254007A6A13437B620BE0BB691B0132330A4A5F
:10426400A2FB03235B0903F00F037A6A13437B6207
:104274007B6A9AB27B681A8100BF2837BD4680BD2D
:1042840000100140001401401F85EB5180B483B03D
:1042940000AF78607B684FF416521A607B68002286
:1042A4009A807B680022DA807B6800221A817B680E
:1042B4000C225A817B6800229A8100BF0C37BD46CC
:1042C4005DF8047B704780B485B000AF78603960D6
:1042D4000023FB607B681B8A9BB2FB60FB6823F4B2
:1042E4007063FB603B681A883B685B8813439AB22F
:1042F4003B689B8813439AB23B68DB8813439BB2A9
:104304001A46FB681343FB60FB689AB27B681A8207
:1043140000BF1437BD465DF8047B704780B483B09A
:1043240000AF78607B6800221A807B6800225A8084
:104334007B6800229A807B680022DA8000BF0C37F9
:10434400BD465DF8047B704780B483B000AF7860ED
:104354000B46FB70FB78002B08D07B689B899BB2D3
:1043640043F400539AB27B689A8107E07B689B8987
:104374009BB223F400539AB27B689A8100BF0C3736
:10438400BD465DF8047B704780B483B000AF7860AD
:104394000B46FB707B681B8B9BB223F0FF039AB226
:1043A4007B681A837B681B8B9AB2FB789BB213439E
:1043B4009AB27B681A8300BF0C37BD465DF8047B54
:1043C400704780B483B000AF78600B46FB70FB7815
:1043D400002B0AD07B689B899BB26FEA43436FEA48
:1043E40053439AB27B689A8107E07B689B899BB2AE
:1043F400C3F30E039AB27B689A8100BF0C37BD46A3
:104404005DF8047B704780B483B000AF78600B46DE
:10441400FB70FB78002B08D07B689B8A9BB243F42B
:1044240000639AB27B689A8207E07B689B8A9BB29E
:1044340023F400639AB27B689A8200BF0C37BD46AE
:104444005DF8047B704780B483B000AF78600B469E
:104454007B807B88C3F308039AB27B689A8000BF91
:104464000C37BD465DF8047B704780B483B000AF61
:1044740078607B689B889BB2C3F308039BB21846A1
:104484000C37BD465DF8047B704780B483B000AF41
:1044940078600B46FB707B681B8A9BB223F00F038A
:1044A4009AB27B681A827B681B8A9AB2FB789BB2A9
:1044B40013439AB27B681A8200BF0C37BD465DF87D
:1044C400047B704780B483B000AF78600B46FB7008
:1044D400FB78002B08D07B689B899BB243F00203D6
:1044E4009AB27B689A8107E07B689B899BB223F030
:1044F40002039AB27B689A8100BF0C37BD465DF80F
:10450400047B704780B483B000AF78600B467B8037
:104514007B689B899BB223F400639AB27B689A817F
:104524007B689B899AB27B8813439AB27B689A8191
:1045340000BF0C37BD465DF8047B704780B483B080
:1045440000AF78600B467B807B681B8A9BB223F0AC
:1045540020039AB27B681A827B681B8A9AB27B8892
:1045640013439AB27B681A8200BF0C37BD465DF8CC
:10457400047B704780B483B000AF78600B46FB7057
:10458400FB78002B08D07B681B8A9BB243F48043E2
:104594009AB27B681A8207E07B681B8A9BB223F479
:1045A40080439AB27B681A8200BF0C37BD465DF81F
:1045B400047B704780B483B000AF78607B689B89CC
:1045C4009BB243F001039AB27B689A8100BF0C3717
:1045D400BD465DF8047B704780B483B000AF78605B
:1045E4000B46FB70FB78002B08D07B689B8A9BB240
:1045F40043F008039AB27B689A8207E07B689B8A3F
:104604009BB223F008039AB27B689A8200BF0C37EE
:10461400BD465DF8047B704780B483B000AF78601A
:104624000B46FB707B681B8B9BB2DBB29AB27B6838
:104634001A837B681B8B9AB2FB789BB21B029BB2DA
:1046440013439AB27B681A8300BF0C37BD465DF8EA
:10465400047B704780B483B000AF78600B46FB7076
:10466400FB78002B08D07B689B8A9BB243F0200325
:104674009AB27B689A8207E07B689B8A9BB223F09C
:1046840020039AB27B689A8200BF0C37BD465DF85E
:10469400047B704780B483B000AF78600B46FB7036
:1046A400FB78002B08D07B689B8A9BB243F01003F5
:1046B4009AB27B689A8207E07B689B8A9BB223F05C
:1046C40010039AB27B689A8200BF0C37BD465DF82E
:1046D400047B704780B483B000AF78600B467B8066
:1046E4007B689B8A9BB223F004039AB27B689A820C
:1046F4007B689B8A9AB27B8813439AB27B689A82BE
:1047040000BF0C37BD465DF8047B704780B483B0AE
:1047140000AF78600B46FB70FB78002B08D07B68F9
:104724009B8A9BB243F002039AB27B689A8207E0A9
:104734007B689B8A9BB223F002039AB27B689A82BD
:1047440000BF0C37BD465DF8047B704780B483B06E
:1047540000AF78600B467B8013467B707B78002B20
:1047640008D07B689B8A9AB27B8813439AB27B6891
:104774009A8209E07B689B8A9AB27B88DB439BB26E
:1047840013409AB27B689A8200BF0C37BD465DF82D
:10479400047B704780B487B000AF78600B467B80A1
:1047A40013467B7000233B610023FB600023BB6046
:1047B40000237B617B687B617B88DBB25B09DBB2B6
:1047C4003B617B8803F01F03FB600122FB6802FA54
:1047D40003F3BB603B69012B03D17B690C337B6121
:1047E40009E03B69022B03D17B6910337B6102E052
:1047F4007B6914337B617B78002B06D07B697A69F3
:104804001168BA680A431A6006E07B697A6911681C
:10481400BA68D2430A401A6000BF1C37BD465DF82F
:10482400047B704780B485B000AF78600B467B8012
:104834000023FB737B681B889AB27B8813409BB26E
:10484400002B02D00123FB7301E00023FB73FB7BED
:1048540018461437BD465DF8047B704780B483B0B6
:1048640000AF78600B467B807B88DB439AB27B6821
:104874001A8000BF0C37BD465DF8047B704780B4D6
:1048840087B000AF78600B467B800023FB60002379
:104894007B610023BB600023FB747B88DBB25B0974
:1048A400DBB2BB607B8803F01F037B6101227B6961
:1048B40002FA03F37B61BB68012B07D17B689B89F8
:1048C4009BB21A467B6913407B6111E0BB68022BE3
:1048D40007D17B681B8A9BB21A467B6913407B61B4
:1048E40006E07B689B8A9BB21A467B6913407B6116
:1048F4007B881B0A9BB2FB600122FB6802FA03F36C
:10490400FB607B681B889BB21A46FB681340FB6004
:104914007B69002B05D0FB68002B02D00123FB74BC
:1049240001E00023FB74FB7C18461C37BD465DF890
:10493400047B704780B485B000AF78600B467B8001
:104944000023FB810023BB817B881B0AFB81FB893D
:10495400012202FA03F3BB81BB89DB439AB27B6871
:104964001A8000BF1437BD465DF8047B704700BF52
:1049740008B50021044600F08BF8044B1868C36B9B
:1049840003B19847204600F08DF900BFAC4C0008F5
:1049940070B50F4E0F4D761BB61018BF002405D00E
:1049A400013455F8043B9847A642F9D10A4E0B4D01
:1049B400761B00F07BF9B61018BF002406D0013432
:1049C40055F8043B9847A642F9D170BD70BD00BFAD
:1049D40000000000000000000000000000000000D3
:1049E40070B4860746D0541E002A41D0CAB203468A
:1049F40002E014F1FF343BD303F8012B9D07F8D1F7
:104A0400032C2ED9CDB245EA05250F2C45EA0545E0
:104A140019D903F110022646103E0F2E42F8105CFD
:104A240042F80C5C42F8085C42F8045C02F11002A3
:104A3400F2D8A4F1100222F00F0204F00F04103295
:104A4400032C13440DD91E462246043A032A46F881
:104A5400045BFAD8221F22F003020432134404F048
:104A640003042CB1C9B21C4403F8011B9C42FBD1C2
:104A740070BC704714460346C2E700BF024B13B133
:104A8400024800F079B8704700000000894B000824
:104A94002DE9F04F354B85B00E460190186800F0B3
:104AA40095F8334B1B68029303F5A4730393029B9D
:104AB400D3F8487137B3DDF80CA04FF00109D346A1
:104AC4007C68651E0ED4013407EB84044FF00008A3
:104AD400FEB1D4F800319E421BD0013D6B1CA4F101
:104AE4000404F5D1234B6BB17B68002B39D13B68AF
:104AF40043B13846CBF80030AFF30080DBF80070E8
:104B0400002FDDD1194B186805B0BDE8F04F00F057
:104B140065B87B682268013BAB420CBF7D60C4F87A
:104B24000080002AD9D0D7F88811D7F804A009FA50
:104B340005F30B420FD0D7F88C110B420DD1D4F8EA
:104B44008010019890477B685345B0D1DBF8003062
:104B5400BB42C2D0ABE79047F5E7D4F8800090475A
:104B6400F1E7BB463F68002FAAD1CBE788040020B9
:104B7400AC4C000800000000002301461A46184609
:104B840000F02EB838B50A4C0A4D641BA4100AD0A4
:104B940004F18043013B05EB8305013C55F80439DE
:104BA4009847002CF9D1BDE8384000F085B800BF23
:104BB4000000000000000000704700BF704700BF05
:104BC400704700BF704700BF704700BF704700BF09
:104BD4000120704701207047704700BF704700BF35
:104BE4002DE9F8432C4D0646286898460F46914611
:104BF400FFF7ECFF294B1C68D4F84831002B3ED05A
:104C04005A681F2A1CDC02F1010E76B103EB820103
:104C14000124C1F88890D3F8880194402043022EDF
:104C2400C3F88801C1F8088123D00232C3F804E034
:104C3400286843F82270FFF7D1FF0020BDE8F8830D
:104C4400174B0BB34FF4C870AFF300800346D8B1D1
:104C5400D4F848210260002141600A46C4F84801A2
:104C64004FF0010EC0F88811C0F88C11002EDCD072
:104C7400CCE7D3F88C110C43C3F88C41D5E704F589
:104C8400A673C4F84831BBE72868FFF7A7FF4FF0C5
:104C9400FF30BDE8F88300BF88040020AC4C000856
:0C4CA40000000000FEE700BF60000020E0
:0C4CB000F8B500BFF8BC08BC9E46704779
:0C4CBC00F8B500BFF8BC08BC9E4670476D
:104CC80000000000000800000002000000020000D0
:104CD8000020000000080000002000000C00000078
:104CE800060000000A0000000A000000060000009C
:104CF8000C000000007A030A000000000000000019
:104D08000102030406070809000000000102030469
:104D180001020304060708096000002000000000E3
:104D2800000000004C030020B40300201C040020F5
:104D3800000000000000000000000000000000006B
:104D4800000000000000000000000000000000005B
:104D5800000000000000000000000000000000004B
:104D6800000000000000000000000000000000003B
:104D7800000000000000000000000000000000002B
:104D8800000000000000000000000000000000001B
:104D9800000000000000000000000000000000000B
:104DA80000000000000000000000000000000000FB
:104DB80000000000000000000000000000000000EB
:104DC80000000000000000000100000000000000DA
:104DD8000E33CDAB34126DE6ECDE05000B0000009F
:104DE80000000000000000000000000000000000BB
:104DF80000000000000000000000000000000000AB
:104E0800000000000000000000000000000000009A
:104E1800000000000000000000000000000000008A
:0C5148000000000000000000C80400206F
:04515400B901000895
:0451580095010008B5
:04515C00000000004F
:04516000814A000878
:0400000508000C01E2
:00000001FF
